:100000000C945D000C9400000C9400000C94000013
:100010000C9400000C9400000C9400000C94000060
:100020000C9400000C948C000C9400000C940000C4
:100030000C9400000C9400000C9400000C94000040
:100040000C9400000C9400000C9400000C94000030
:100050000C9400000C9400000C9400000C94000020
:100060000C9400000C9400001027E80364000A00C0
:100070000100001000011000010000000000253008
:1000800032643A253032643A253032640020005E12
:10009000000080C0040003007A00020000038D000D
:1000A000020002038D00020004038F000200060319
:1000B0008D000200080392000000F894EE27EFBBC9
:1000C000F1E0F5BFE5BF8DE0A2E0BB27ED938A9597
:1000D000E9F780E098E0A0E0B1E0ED930197E9F75F
:1000E000E4E9F0E085919591009761F0A591B591D3
:1000F00005901590BF01F00105900D920197E1F771
:10010000FB01F0CFE0E0EEBBEFEFEDBFE8E0EEBFCC
:10011000C0E0D3E00C94A100EA93EFB7EA934394D4
:10012000ECE3E41551F444243394E31531F433241F
:100130006394ECE0E61509F46624E991EFBFE991D8
:100140001895EF97A59710E031E021E051E0E0E845
:10015000E0936100E0E0E0936100E4B9E7E0E5B935
:10016000E0E0E7B9E8B9EAB9EBB9E0E2E093B6005C
:10017000E0E0E093B000E5E0E093B100E0E0E09380
:10018000B200E093B300E093B400E1E0E0937000CC
:10019000A4E10E94DD017894E3B1E1700E2F3017E5
:1001A00011F0003009F004C01F5F143009F410E0B2
:1001B000302FE3B1E270F0E0F595E7950E2F2017B0
:1001C00011F0003009F01EC00E94CC0331F463949A
:1001D000ECE0E61508F4662415C0E230A0E0FA076A
:1001E00031F43394ECE3E31509F433240BC0E3302A
:1001F000A0E0FA0739F4F8944394ECE3E41509F429
:1002000044247894202FE3B1E470F0E00E942804A5
:100210000E2F501711F0003009F021C00E94CC03BE
:1002200039F4662019F4ECE06E2E01C06A9417C010
:10023000E230A0E0FA0739F4332019F4EBE33E2E64
:1002400001C03A940CC0E330A0E0FA0741F4F894FE
:10025000442019F4EBE34E2E01C04A947894502FB9
:10026000E0E0EA93A0E06AD0FE01FA93EA93EEE7B9
:10027000F0E0FA93EA93E62D0E94D203E32D0E9468
:10028000D203E42D0E94D2038CE00E947F0360968B
:10029000DE0182D0AAE0B0E00E941604103011F115
:1002A0000E94CC0311F4E1E017C0E230A0E0FA07AD
:1002B00041F4E1E00E94D803A0E0B3E06DD0E4E0B7
:1002C0000BC0E330A0E0FA0751F4E4E00E94D80349
:1002D000A2E0B3E061D0E7E0EA93A1E02FD0A4E090
:1002E000B3E005C0E7E00E94D803A6E0B3E054D035
:1002F000A4E6B0E00E9416044FCFFFCFAA93EBB163
:10030000EF70AE2FE881E07FEA2BEBB98DE08A95A4
:10031000F1F75A9A8DE08A95F1F75A988DE08A950F
:10032000F1F777C0AA93A881E9DFE881E295E88335
:10033000A881E4DF85E88A95F1F76BC0AA93E8818C
:10034000F0E0E85FFC4FE081A981AE0FEBDF598060
:10035000888022960895A2E00E94DC03ACE0E2DFF0
:10036000A1E00E94DC03E0E08E2E5E2E0895AA93A9
:10037000A881AA3011F0571448F0E0E0EA93839482
:10038000A82DDCDFA881AA3009F443C05394589A01
:10039000A881C8DF58983DC0BA93AA931A93A9813F
:1003A000BA81ED91A983BA831E2FE03019F0A12FF5
:1003B000DEDFF5CF188123960895AA93EAB1E06FA6
:1003C000EAB9529A509A519A5A98589859987880FE
:1003D000E881E058E0930A03E881E054E0930B03DE
:1003E000A4E1B0E00E9416040E94E2030E94E2032E
:1003F0000E94E203A0E282DF88EC90E00197F1F72F
:10040000A8E290DFA4E08EDFA5E88CDFA6E08ADF1B
:10041000A2DF21960895BA93AA931A930A93AA8108
:10042000BB8112960E942D04309759F1AA81BB819D
:1004300014960E942D048F01309761F00230E0E0A5
:100440001E0798F0F80131978F01AA81BB8114969D
:10045000ED93FC93AA81BB811296ED91FD913196AB
:10046000FE93EE933197AC81A083AA81BB810E9459
:100470002D04FF232AF0ED91FD913196FE93EE932A
:1004800006C0AA81BB81EFEFFFEFED93FC931981CA
:10049000088125960895BA93AA9326970E943A0454
:1004A00010E0AC85BD85E0E0F0E0ED93FC93EA89D7
:1004B000FB893196EA8BFB8B3197E4912E2FE0304C
:1004C00009F415C1E12FE03039F4253211F411E0BF
:1004D00002C00E94EA030AC1E130A9F4253219F4EE
:1004E0000E94EA0302C112E040E000E02D3211F464
:1004F00001E0FCC02B3211F44BE2F8C0203211F4C1
:1005000040E2F4C002C0E23039F450E013E020339E
:1005100011F40068EBC003C0E33009F0E7C02033FA
:1005200010F02A3308F007C0AAE05A9F502DE22F9E
:10053000E0535E0FDBC0E22FE33649F40E94F10383
:10054000E889F989A481AA930E94F703CEC0E33712
:1005500041F40E94F1030E94FD030E94B3031E2F89
:100560000AC0E03761F40E94F1030E94FD030E947B
:10057000BF031E2F086002600F7730E034C0E436FE
:1005800011F0E93611F4046002C0E53731F4E8E611
:10059000F0E0EE83FF8315E00CC0E83511F408604D
:1005A00003C0E83709F0A1C0E2E7F0E0EE83FF8383
:1005B00014E002FF14C00E94F1030E940704AB85FF
:1005C000AA233AF4EA85FB850E942404EA87FB8784
:1005D0004DE2403011F01F5F01C00B7F04C00E944C
:1005E000F1030E94070400FD11C0151778F407FFFE
:1005F00008C002FF04C00B7F242F115001C020E36C
:1006000001C020E20E94EA035150EFCF312F01FFD9
:1006100017C03030A1F003FF06C0EE81FF812591A5
:10062000EE83FF8305C0AE81BF812D91AE83BF8372
:100630000E94EA03503009F051503150EACF4BC0CC
:1006400020E3EE81FF810E943104E887F987EE8183
:10065000FF813296EE83FF83E885F985AA85BB8505
:10066000AE17BF0750F02F5FA885B985EA85FB85D7
:10067000EA1BFB0BEA87FB87EFCF2A3328F003FF47
:1006800002C0295F01C0295D04FD1AC0213320F496
:10069000A885B985119709F409C0531710F000FF18
:1006A00001C013C020E207FF0BC020E3006102FF7E
:1006B00007C00B7F4A930E94F703503009F0515056
:1006C0000E94EA03503009F051503150A885B98595
:1006D000129708F0B5CF00FF08C0503031F05150EC
:1006E000E0E2EA930E94F703F8CF10E0E0CEAC8599
:1006F000BD850E942D040E94410464960895FF92D6
:10070000F82E26970E943C040E940F04309719F49B
:10071000EFEFFFEF23C0DE0116960E9420048D014B
:100720000E940F04EE83FF83E0E0E887E987DE01A3
:100730001A960E9420040E942D04FA93EA931A93B9
:100740000A93EBE0F2E0FA93EA93DE011A96A3DE55
:100750009F01AE81BF81E0E0EC93F9010E94430468
:100760002A96FF900895BA93AA93A991B991EE277A
:10077000FF276D91662311F03196FBCF0895BA9350
:10078000AA93AA27BB27E991F9910590002011F0BF
:100790001196FBCFFD010895E12FF0E0E130A0E0DC
:1007A000FA070895FF27662777270E9435040895E2
:1007B000EA93A1E00C949E010E949201A3E0B0E0B4
:1007C0000C941604A0E30E947E0188EC90E001974F
:1007D000F1F708952A93AD85BE85EF85F8890995CF
:1007E0000895E889F9893497E88BF98B0895AD85E8
:1007F000BE85EF85F88909950895A889B989149669
:100800000E942D04EE83FF83AE81BF810895A889E5
:10081000B98914960E942D04EA87FB870895DE01AA
:100820001C960E9420040E942D040895109639F011
:1008300080ED97E00197F1F7A8951197C9F7089512
:100840000024AF0DB01D0895F195E195F040089595
:10085000F595E795F595E7950895ED91FC9111973C
:1008600008950590F491E02D08957A936A93FA9390
:10087000EA9308955A934A933A932A931A930A93C0
:1008800008955D814C813B812A81198108810895F9
:00000001FF
