:0A0000000C9453000C9400000C94C3
:10000A0000000C9400000C9400000C9400000C9466
:10001A0000000C9400000C9400000C9482000C94D4
:10002A0000000C9400000C9400000C9400000C9446
:10003A0000000C9400000C9400000C9400000C9436
:10004A0000000C9400000C9400000C9400000C9426
:10005A0000000C9400000C9400000C94000010277F
:10006A00E80364000A00010000100001100001000A
:10007A0000000000253032643A253032643A2530D7
:10008A003264005E000080C0040003007A000200AF
:10009A0000038D000200020390000000F894EE278E
:1000AA00EFBBF1E0F5BFE5BF8DE0A2E0BB27ED9322
:1000BA008A95E9F780E098E0A0E0B1E0ED93019736
:1000CA00E9F7E2E9F0E085919591009761F0A59151
:1000DA00B59105901590BF01F00105900D92019719
:1000EA00E1F7FB01F0CFE0E0EEBBEFEFEDBFE8E0B8
:1000FA00EEBFC0E0D3E00C949700EA93EFB7EA931F
:10010A004394ECE3E41551F444243394E31531F4B5
:10011A0033246394ECE0E61509F46624E991EFBF11
:10012A00E9911895EF97A59710E0E0E8E093610050
:10013A00E0E0E0936100E4B9E5B9E7B9E8B9EAB902
:10014A00EBB9E0E2E093B600E0E0E093B000E5E06E
:10015A00E093B100E0E0E093B200E093B300E093F3
:10016A00B400E1E0E0937000A4E19ED07894E0E06E
:10017A00EA93A0E05AD0FE01FA93EA93EEE7F0E0A0
:10018A00FA93EA93E62D0E944803E32D0E9448035E
:10019A00E42D0E9448038CE00E94FB026096DE0177
:1001AA0072D012E01030D9F0E12FF0E0E130A0E097
:1001BA00FA0711F4E1E00DC0E230A0E0FA0721F4F9
:1001CA00E1E0EA93A4E007C0E330A0E0FA0721F4F3
:1001DA00E0E0EA93A1E029D0A0E0B3E054D0A4E69D
:1001EA00B0E00E948803C3CFFFCFAA93EBB1EF70B0
:1001FA00AE2FE881E07FEA2BEBB98DE08A95F1F723
:10020A005A9A8DE08A95F1F75A988DE08A95F1F716
:10021A0077C0AA93A881E9DFE881E295E883A881FB
:10022A00E4DF85E88A95F1F76BC0AA93E881F0E0EC
:10023A00EE5FFC4FE081A981AE0FEBDF5980888029
:10024A0022960895A2E00E944E03ACE0E2DFA1E00C
:10025A000E944E03E0E08E2E5E2E0895AA93A88196
:10026A00AA3011F0571448F0E0E0EA938394A82DDD
:10027A00DCDFA881AA3009F443C05394589AA881B4
:10028A00C8DF58983DC0BA93AA931A93A981BA8134
:10029A00ED91A983BA831E2FE03019F0A12FDEDF7A
:1002AA00F5CF188123960895AA93EAB1E06FEAB9C7
:1002BA00529A509A519A5A98589859987880E8813F
:1002CA00E058E0930403E881E054E0930503A4E1D5
:1002DA00B0E00E9488030E9454030E9454030E94C3
:1002EA005403A0E282DF88EC90E00197F1F7A8E2DC
:1002FA0090DFA4E08EDFA5E88CDFA6E08ADFA2DF2C
:10030A0021960895BA93AA931A930A93AA81BB8154
:10031A0012960E949A03309759F1AA81BB811496CA
:10032A000E949A038F01309761F00230E0E01E07C5
:10033A0098F0F80131978F01AA81BB811496ED9349
:10034A00FC93AA81BB811296ED91FD913196FE93A1
:10035A00EE933197AC81A083AA81BB810E949A0354
:10036A00FF232AF0ED91FD913196FE93EE9306C09C
:10037A00AA81BB81EFEFFFEFED93FC93198108810E
:10038A0025960895BA93AA9326970E94A70310E088
:10039A00AC85BD85E0E0F0E0ED93FC93EA89FB894A
:1003AA003196EA8BFB8B3197E4912E2FE03009F4DA
:1003BA0015C1E12FE03039F4253211F411E002C001
:1003CA000E945C030AC1E130A9F4253219F40E94A3
:1003DA005C0302C112E040E000E02D3211F401E0BA
:1003EA00FCC02B3211F44BE2F8C0203211F440E287
:1003FA00F4C002C0E23039F450E013E0203311F4C3
:10040A000068EBC003C0E33009F0E7C0203310F006
:10041A002A3308F007C0AAE05A9F502DE22FE05372
:10042A005E0FDBC0E22FE33649F40E946303E889DA
:10043A00F989A481AA930E946903CEC0E33741F4E3
:10044A000E9463030E946F030E942F031E2F0AC09B
:10045A00E03761F40E9463030E946F030E943B032A
:10046A001E2F086002600F7730E034C0E43611F0C6
:10047A00E93611F4046002C0E53731F4E8E6F0E049
:10048A00EE83FF8315E00CC0E83511F4086003C061
:10049A00E83709F0A1C0E2E7F0E0EE83FF8314E059
:1004AA0002FF14C00E9463030E947903AB85AA234A
:1004BA003AF4EA85FB850E949603EA87FB874DE2B8
:1004CA00403011F01F5F01C00B7F04C00E9463031C
:1004DA000E94790300FD11C0151778F407FF08C0C0
:1004EA0002FF04C00B7F242F115001C020E301C07A
:1004FA0020E20E945C035150EFCF312F01FF17C059
:10050A003030A1F003FF06C0EE81FF812591EE8312
:10051A00FF8305C0AE81BF812D91AE83BF830E9448
:10052A005C03503009F051503150EACF4BC020E300
:10053A00EE81FF810E949E03E887F987EE81FF81A1
:10054A003296EE83FF83E885F985AA85BB85AE17C7
:10055A00BF0750F02F5FA885B985EA85FB85EA1B9E
:10056A00FB0BEA87FB87EFCF2A3328F003FF02C091
:10057A00295F01C0295D04FD1AC0213320F4A88532
:10058A00B985119709F409C0531710F000FF01C08B
:10059A0013C020E207FF0BC020E3006102FF07C07F
:1005AA000B7F4A930E946903503009F051500E9410
:1005BA005C03503009F051503150A885B985129723
:1005CA0008F0B5CF00FF08C0503031F05150E0E2DA
:1005DA00EA930E946903F8CF10E0E0CEAC85BD85AE
:1005EA000E949A030E94AE0364960895FF92F82E21
:1005FA0026970E94A9030E948103309719F4EFEF0E
:10060A00FFEF23C0DE0116960E9492038D010E941D
:10061A008103EE83FF83E0E0E887E987DE011A962B
:10062A000E9492030E949A03FA93EA931A930A93F6
:10063A00E7E8F1E0FA93EA93DE011A96A3DE9F0156
:10064A00AE81BF81E0E0EC93F9010E94B0032A96E3
:10065A00FF900895BA93AA93A991B991EE27FF271B
:10066A006D91662311F03196FBCF0895BA93AA9340
:10067A00AA27BB27E991F9910590002011F011965C
:10068A00FBCFFD010895FF27662777270E94A20363
:10069A0008950E940E01A3E0B0E00C948803A0E341
:1006AA000E94FA0088EC90E00197F1F708952A93E6
:1006BA00AD85BE85EF85F88909950895E889F98998
:1006CA003497E88BF98B0895AD85BE85EF85F88957
:1006DA0009950895A889B98914960E949A03EE8308
:1006EA00FF83AE81BF810895A889B98914960E94B3
:1006FA009A03EA87FB870895DE011C960E949203FB
:10070A000E949A030895109639F080ED97E00197B8
:10071A00F1F7A8951197C9F708950024AF0DB01DF8
:10072A000895F195E195F0400895ED91FC911197A6
:10073A0008950590F491E02D08957A936A93FA93B7
:10074A00EA9308955A934A933A932A931A930A93E7
:10075A0008955D814C813B812A8119810881089520
:00000001FF
