:020000000C945E
:100002004D000C9400000C9400000C9400000C9421
:1000120000000C9400000C9400000C9400000C945E
:1000220000000C9400000C9400000C9400000C944E
:1000320000000C9400000C9400000C9400000C943E
:1000420000000C9400000C9400000C9400000C942E
:1000520000000C9400000C9400000C9400000C941E
:1000620000000C9400001027E80364000A0001005D
:10007200001000011000010076617269616E743A2D
:1000820037006E756D626572203D2025640080C068
:100092000200000390000000F894EE27EFBBF1E0AD
:1000A200F5BFE5BF8DE0A2E0BB27ED938A95E9F7A6
:1000B20080E098E0A0E0B1E0ED930197E9F7E2E992
:1000C200F0E085919591009761F0A591B591059029
:1000D2001590BF01F00105900D920197E1F7FB0128
:1000E200F0CFE0E0EEBBEFEFEDBFE8E0EEBFC0E047
:1000F200D3E00C947C006497E0E8E0936100E0E0D8
:10010200E0936100E4B9E5B9E7B9E8B9EAB9EBB956
:10011200E093C000E8E1E093C100E6E0E093C200B2
:10012200E0E0E093C500E3E3E093C400A4E186D0FD
:10013200EAE7F0E0FA93EA9380E00E940303229652
:10014200A0E00E9453010E944C011E2FFE01FA936F
:10015200EA93E4E8F0E0FA93EA93E12FFF276627B7
:1001620077270E949E0384E00E94D502289635D00C
:10017200DE0154D0A8EEB3E00E948403D9CFFFCFB2
:10018200AA93E5B1EF70AE2FE881E07FEA2BE5B9E3
:100192008DE08A95F1F72A9A8DE08A95F1F72A98EF
:1001A2008DE08A95F1F786C0AA93A881E9DFE881FC
:1001B200E295E883A881E4DF85E88A95F1F77AC0C1
:1001C200AA93E881F0E0E050FD4FE081A981AE0FF3
:1001D200EBDF4980388022960895A2E00E943B031B
:1001E200ACE0E2DFA1E00E943B03E0E03E2E4E2EB7
:1001F2000895AA93A881AA3011F0461448F0E0E0CD
:10020200EA933394A32DDCDFA881AA3009F452C00B
:100212004394289AA881C8DF28984CC0BA93AA931D
:100222001A93A981BA81ED91A983BA831E2FE03076
:1002320019F0A12FDEDFF5CF188146C0AA93E4B1F1
:10024200E06FE4B9229A209A219A2A98289829984C
:100252006880E881E058E0930203E881E054E0938B
:100262000303A4E1B0E00E9484030E9441030E94C0
:1002720041030E944103A0E283DF88EC90E00197F2
:10028200F1F7A8E291DFA4E08FDFA5E88DDFA6E019
:100292008BDFA3DF0FC0E091C000E078E1F3E091D3
:1002A200C6000895AA93E091C000E072E1F3E881EC
:1002B200E093C60021960895BA93AA93AA81F2DF29
:1002C200A881B9810E94490323960895BA93AA93FB
:1002D2001A930A93AA81BB8112960E9496033097C1
:1002E20029F1AA81BB8114960E9496038F0130974F
:1002F20061F00230E0E01E0780F0F80131978F01D3
:10030200AA81BB811496ED93FC93AA81BB811296BC
:100312000E9449033197AC81A083AA81BB810E94CC
:100322009603FF2312F00E94490306C0AA81BB81F3
:10033200EFEFFFEFED93FC93198108812596089565
:10034200BA93AA9326970E94A30310E0AC85BD85B9
:10035200E0E0F0E0ED93FC93EA89FB893196EA8BC9
:10036200FB8B3197E4912E2FE03009F415C1E12F78
:10037200E03039F4253211F411E002C00E944F033B
:100382000AC1E130A9F4253219F40E944F0302C1D7
:1003920012E040E000E02D3211F401E0FCC02B320B
:1003A20011F44BE2F8C0203211F440E2F4C002C072
:1003B200E23039F450E013E0203311F40068EBC06E
:1003C20003C0E33009F0E7C0203310F02A3308F00D
:1003D20007C0AAE05A9F502DE22FE0535E0FDBC008
:1003E200E22FE33649F40E945603E889F989A48191
:1003F200AA930E945C03CEC0E33741F40E945603E5
:100402000E9462030E9422031E2F0AC0E03761F499
:100412000E9456030E9462030E942E031E2F086050
:1004220002600F7730E034C0E43611F0E93611F49F
:10043200046002C0E53731F4E8E6F0E0EE83FF83C2
:1004420015E00CC0E83511F4086003C0E83709F084
:10045200A1C0E2E7F0E0EE83FF8314E002FF14C0E4
:100462000E9456030E946C03AB85AA233AF4EA85E4
:10047200FB850E949203EA87FB874DE2403011F030
:100482001F5F01C00B7F04C00E9456030E946C03D1
:1004920000FD11C0151778F407FF08C002FF04C061
:1004A2000B7F242F115001C020E301C020E20E94E3
:1004B2004F035150EFCF312F01FF17C03030A1F061
:1004C20003FF06C0EE81FF812591EE83FF8305C005
:1004D200AE81BF812D91AE83BF830E944F03503006
:1004E20009F051503150EACF4BC020E3EE81FF8139
:1004F2000E949A03E887F987EE81FF813296EE83A4
:10050200FF83E885F985AA85BB85AE17BF0750F042
:100512002F5FA885B985EA85FB85EA1BFB0BEA8775
:10052200FB87EFCF2A3328F003FF02C0295F01C007
:10053200295D04FD1AC0213320F4A885B9851197DD
:1005420009F409C0531710F000FF01C013C020E2E4
:1005520007FF0BC020E3006102FF07C00B7F4A9335
:100562000E945C03503009F051500E944F035030FA
:1005720009F051503150A885B985129708F0B5CFCE
:1005820000FF08C0503031F05150E0E2EA930E947F
:100592005C03F8CF10E0E0CEAC85BD850E949603E7
:1005A2000E94AA0364960895FF92F82E26970E944D
:1005B200A5030E947403309719F4EFEFFFEF1DC0FB
:1005C200DE0116960E948E038D010E947403EE8353
:1005D200FF83E0E0E887E987DE011A960E947B0349
:1005E200E7E6F1E0FA93EA93DE011A96A9DE9F01AB
:1005F200AE81BF81E0E0EC93F9010E94AC032A9640
:10060200FF900895FF92F82E26971A930A93DE011F
:1006120014960E948E038D01E0E0EC83ED83EE835D
:10062200EF83DE0118960E947B03EDE5F1E0FA9379
:10063200EA93DE01189684DE198108812896FF90DC
:100642000895BA93AA93A991B991EE27FF276D91C4
:10065200662311F03196FBCF0895BA93AA93AA2785
:10066200BB27E991F9910590002011F01196FBCF7B
:10067200FD0108950E94D500A3E0B0E00C9484032C
:10068200A0E30E94C10088EC90E00197F1F7089581
:10069200ED91FD913196FE93EE9308952A93AD85E7
:1006A200BE85EF85F88909950895E889F989349717
:1006B200E88BF98B0895AD85BE85EF85F88909959C
:1006C2000895A889B98914960E949603EE83FF8340
:1006D200AE81BF810895A889B98914960E949603B4
:1006E200EA87FB870895DE011C960E948E030E9412
:1006F200960308950E948E030E949603FA93EA934A
:100702001A930A930895109639F080ED97E00197B5
:10071200F1F7A8951197C9F708950024AF0DB01D00
:100722000895F195E195F0400895ED91FC911197AE
:1007320008950590F491E02D08957A936A93FA93BF
:10074200EA9308955A934A933A932A931A930A93EF
:1007520008955D814C813B812A8119810881089528
:00000001FF
