:0C0000000C943D000C9400000C940000D7
:10000C000C9400000C9400000C9400000C94000064
:10001C000C9400000C9400000C9400000C94000054
:10002C000C9400000C9400000C9400000C94000044
:10003C000C9400000C9400000C9400000C94000034
:10004C000C9400000C9400000C9400000C94000024
:10005C000C9400000C9400000C9400001027E80392
:10006C0064000A0001000010000110000100F89467
:10007C00EE27EFBBF1E0F5BFE5BF8DE0A2E0BB27BB
:10008C00ED938A95E9F780E098E0A0E0B1E0ED937C
:10009C000197E9F7E0E0EEBBEFEFEDBFE8E0EEBF74
:1000AC00C0E0D3E00C945A00E0E8E0936100E0E09B
:1000BC00E0936100E1E0E4B9E0E0E5B9E7B9E8B963
:1000CC00E0E4EAB9E0E0EBB9E3E8E4BDE1E0E5BD8A
:1000DC00E0E6E6BDEFE7E7BDE0E0E8BDE0936E00EB
:1000EC00E093C000E8E0E093C100E6E0E093C200DA
:1000FC00E0E0E093C500E3E3E093C400FFCFFFCF63
:00000001FF
