:0A0000000C9440000C9400000C94D6
:10000A0000000C9400000C9400000C9400000C9466
:10001A0000000C9400000C9400000C9400000C9456
:10002A0000000C945D000C9400000C9400000C94E9
:10003A0000000C9400000C9400000C9400000C9436
:10004A0000000C9400000C9400000C9400000C9426
:10005A0000000C9400000C9400000C94000010277F
:10006A00E80364000A00010000100001100001000A
:10007A0025640D0A0000F894EE27EFBBF1E0F5BF06
:10008A00E5BF8DE0A2E0BB27ED938A95E9F780E012
:10009A0098E0A0E0B1E0ED930197E9F7E0E0EEBB6C
:1000AA00EFEFEDBFE8E0EEBFC0E0D3E00C94AE00A6
:1000BA00AA93EA93EFB7EA93EBB1A0E4EA27EBB984
:1000CA00E991EFBFE991A9911895AA931A930A9316
:1000DA00EA81E03031F4E8E0E09381001981088197
:1000EA00F6C0EA81F0E00E9425040E949A03A0E08B
:1000FA00B4E284EF9AE40E94E002E0E0F0E060EE0D
:10010A0070E40E94E002E0E0F0E06AE774E40E9432
:10011A00E002E0E0F0E060E070E40E94C8030E94C0
:10012A0061038F01EAE7F0E0FA93EA93F8016627A0
:10013A0077270E94320484E000D226961093890021
:10014A00E02FE0938800E9E0E093810019810881BB
:10015A00BEC0EF97E09720E030E050E0E0E8E0939F
:10016A006100E0E0E0936100E4B9E5B9E7B9E8B914
:10017A00EFEFEAB9E0E0EBB9E0938000E9E0E09361
:10018A008100E0E0E0938500E0938400E09387003B
:10019A00E0938600E0938900E1E0E0938800E0E0E4
:1001AA00E0938B00E0938A00E2E0E0936F00E0E0E6
:1001BA00E093C000E8E0E093C100E6E0E093C2000B
:1001CA00E0E0E093C500E3E3E093C4007894A0E0A4
:1001DA007CDFE0EFE4B9E0E0E983A981A43050F4E0
:1001EA000E94E502DE0116960E94EF02E981EF5FA6
:1001FA00E983F3CFE0E0E983A981A43050F40E94B7
:10020A00E502DE0112960E94EF02E981EF5FE983BF
:10021A00F3CFE0E0E983A981A43008F041C00E944D
:10022A00F7020C900E94FE02EC91E015A9F10E94DF
:10023A00F7022C9133270E94FE025C91E0E0E883EA
:10024A00A881A430E8F4E52FE170EE0FAE2FE22F7B
:10025A00E170EA2BDE01A259BF4FEC93F0E0E230E5
:10026A00A0E0FA0731F4E981EE0FEE0FA881AE0F94
:10027A002CDF369527955695E881EF5FE883E0CF26
:10028A00E981F0E0DE011696EA0FFB1F0F010E94DA
:10029A00FE02EC91D001EC93E981EF5FE983BBCFD9
:1002AA00A9CFFFCFAA93E091C000E072E1F3E88101
:1002BA00E093C60021960895BA93AA93AA81F2DF21
:1002CA00A881B981ED91FD913196FE93EE93239623
:1002DA000895BA93AA9326970E94370410E0AC8532
:1002EA00BD85E0E0F0E0ED93FC93EA89FB89319665
:1002FA00EA8BFB8B3197E4912E2FE03009F415C17C
:10030A00E12FE03039F4253211F411E002C00E94E5
:10031A0005030AC1E130A9F4253219F40E94050344
:10032A0002C112E040E000E02D3211F401E0FCC00D
:10033A002B3211F44BE2F8C0203211F440E2F4C03F
:10034A0002C0E23039F450E013E0203311F40068BF
:10035A00EBC003C0E33009F0E7C0203310F02A33C2
:10036A0008F007C0AAE05A9F502DE22FE0535E0F13
:10037A00DBC0E22FE33649F40E940C03E889F989CD
:10038A00A481AA930E941203CEC0E33741F40E94CB
:10039A000C030E9418030E94C7021E2F0AC0E037EE
:1003AA0061F40E940C030E9418030E94D3021E2FBC
:1003BA00086002600F7730E034C0E43611F0E936A5
:1003CA0011F4046002C0E53731F4E8E6F0E0EE83A8
:1003DA00FF8315E00CC0E83511F4086003C0E83764
:1003EA0009F0A1C0E2E7F0E0EE83FF8314E002FF28
:1003FA0014C00E940C030E942203AB85AA233AF47C
:10040A00EA85FB850E941104EA87FB874DE24030AA
:10041A0011F01F5F01C00B7F04C00E940C030E94F1
:10042A00220300FD11C0151778F407FF08C002FF68
:10043A0004C00B7F242F115001C020E301C020E229
:10044A000E9405035150EFCF312F01FF17C0303002
:10045A00A1F003FF06C0EE81FF812591EE83FF83A1
:10046A0005C0AE81BF812D91AE83BF830E94050373
:10047A00503009F051503150EACF4BC020E3EE81A1
:10048A00FF810E942E04E887F987EE81FF81329668
:10049A00EE83FF83E885F985AA85BB85AE17BF077A
:1004AA0050F02F5FA885B985EA85FB85EA1BFB0B0F
:1004BA00EA87FB87EFCF2A3328F003FF02C0295FC0
:1004CA0001C0295D04FD1AC0213320F4A885B9852D
:1004DA00119709F409C0531710F000FF01C013C0A7
:1004EA0020E207FF0BC020E3006102FF07C00B7F79
:1004FA004A930E941203503009F051500E9405039A
:10050A00503009F051503150A885B985129708F03A
:10051A00B5CF00FF08C0503031F05150E0E2EA9305
:10052A000E941203F8CF10E0E0CEAC85BD850E9490
:10053A002A040E943E0464960895FF92F82E269794
:10054A001A930A93DE0114960E940D048D01E0E0CD
:10055A00EC83ED83EE83EF83DE0118960E940D048F
:10056A000E942A04FA93EA931A930A93E1E6F1E0C5
:10057A00FA93EA93DE011896ACDE1981088128966F
:10058A00FF900895BA93AA93A991B991EE27FF27EC
:10059A006D91662311F03196FBCF0895BA93AA9311
:1005AA00AA27BB27E991F9910590002011F011962D
:1005BA00FBCFFD0108950E94C803DF01CB01089516
:1005CA00E981EC5FA1E00E941D04E095E5B9E981AB
:1005DA00F0E00895AE0FBF1FE3B1EC93AAE0B0E0DC
:1005EA000C942A03E981F0E0DE011696AE0FBF1FD4
:1005FA000895E981F0E0DE011296AE0FBF1F08955B
:10060A002A93AD85BE85EF85F88909950895E8890D
:10061A00F9893497E88BF98B0895AD85BE85EF8506
:10062A00F88909950895A889B98914960E942A0417
:10063A00EE83FF83AE81BF810895A889B989149694
:10064A000E942A04EA87FB870895109639F080ED04
:10065A0097E00197F1F7A8951197C9F708955523DF
:10066A0042F4503811F4E0FF04C03196691F791F33
:10067A006BF050E8572711F45F9373C05F3F31F076
:10068A00660F000C57956795752F08955F930020A4
:10069A000AF073C06CC050E8192E1522880F991FF2
:1006AA009527550F879550E8072E0522660F771F65
:1006BA007527550F67950895689401C0E8945F936C
:1006CA00F2DF703818F07F3F08F44BC056E1571B31
:1006DA00AAF4519558300EF4593030F0EFEFFFEF8D
:1006EA006FEF7FE777F91AC077275523B9F0EE0F36
:1006FA00FF1F661F771F5A95D1F710C0772758300A
:10070A0028F0EF2FF62F672F5850F9CF552331F0E5
:10071A0076956795F795E7955A95D1F700200AF4EB
:10072A007FD05F910895689401C0E8943097604043
:10073A007040B1F0002426F0772312F4009470D0B0
:10074A00172E7EE1112032F07A95EE0FFF1F661FF9
:10075A00111CF9CFEF2FF62F612D5F938ADF5F917E
:10076A000895EE27FF27662777275F910895EFEF11
:10077A00FFEF6FE77FEF5F910895EFEFFFEF6FE70E
:10078A007FE75F9108955F9386DF703821F4112027
:10079A000AF4EDCFF2CF903809F4E3CF012408949C
:1007AA00970B1BF4D4F30020F3CF792F1F932F93C9
:1007BA003F934F9311241127222733274427552784
:1007CA0090E2AE17BF078607410730F0AE1BBF0B9A
:1007DA00860B410B089401C08894551F221F331FB2
:1007EA00111CAA1FBB1F881F441F9A9551F7F901B4
:1007FA00612D4F913F912F911F91662332F0550F32
:10080A00EE1FFF1F661F7A9543F229DF5F91089555
:10081A000024AF0DB01D0895F195E195F0400895BB
:10082A00F09560957095E195FF4F6F4F7F4F089552
:10083A00EE230E2EEA2F19F0EE0F0A94E9F7089527
:10084A006F2F660F660B762F0895ED91FC91119725
:10085A0008950590F491E02D08957A936A93FA9396
:10086A00EA9308955A934A933A932A931A930A93C6
:10087A0008955D814C813B812A81198108810895FF
:00000001FF
