:0E0000000C9434000C9400000C9400000C943E
:10000E0000000C9400000C9400000C9400000C9462
:10001E0000000C9400000C9400000C9400000C9452
:10002E0000000C9400000C9400000C9400000C9442
:10003E0000000C9451000C9400000C9400000C94E1
:10004E0000000C9400000C9400000C9400000C9422
:10005E0000000C9400000C940000F894EE27EFBB07
:10006E00F1E0F5BFE5BF8DE0A2E0BB27ED938A95E9
:10007E00E9F780E098E0A0E0B1E0ED930197E9F7B1
:10008E00E0E0EEBBEFEFEDBFE8E0EEBFC0E0D3E0A7
:10009E000C945E00EA93EFB7EA93E0E6E6BDE5B1B5
:1000AE000E947A00E5B9E991EFBFE9911895E0E871
:1000BE00E0936100E0E0E0936100E1E0E4B9E0E0AC
:1000CE00E5B9E7B9E8B9EAB9EBB9E4BDE1E0E5BDF8
:1000DE00E0E6E6BDE0E0E7BDE8BDE1E0E0936E00FE
:1000EE007894FFCFFFCFEE23E1E009F0EE270895DD
:00000001FF
