:060000000C9456000C9464
:1000060000000C9400000C9400000C9400000C946A
:1000160000000C9400000C9400000C9400000C945A
:1000260000000C9400000C9400000C9400000C944A
:1000360000000C9400000C9400000C9400000C943A
:1000460000000C9400000C9400000C9400000C942A
:1000560085000C9400000C9400000C9400000C9495
:10006600000048656C6C6F0055203D20252E3366D8
:1000760020560049203D20252E336620410080C0B1
:100086002D4E414E000001002D4E414E00494E4678
:10009600000006000003680002000B038400010054
:1000A6000F038C000000F894EE27EFBBF1E0F5BFDC
:1000B600E5BF8DE0A2E0BB27ED938A95E9F780E0E6
:1000C60098E0A0E0B1E0ED930197E9F7E8E9F0E008
:1000D60085919591009761F0A591B5910590159040
:1000E600BF01F00105900D920197E1F7FB01F0CFFA
:1000F600E0E0EEBBEFEFEDBFE8E0EEBFC0E0D3E03F
:100106000C94BA008A93AA93BA93EA93FA93EFB738
:10011600EA93E0910A03A6E0B3E0F0E0EE0FFF1FDA
:10012600AE0FBF1FE0917800F0917900ED93FC933C
:10013600A0910A03AF5FA0930A03A23018F0E0E093
:10014600E0930A03E0910A03ED5FE0937C008BE104
:100156008A95F1F7E0917A00E064E0937A00E991FC
:10016600EFBFF991E991B991A99189911895EF9706
:10017600EF97EF972B97E0E8E0936100E0E0E093DC
:100186006100E4B9E5B9E7E0E7B9E0E0E8B9E0EF36
:10019600EAB9E0E0EBB9E4BDE5BDE6BDE7BDE8BD23
:1001A600E0938000E0938100E0938500E093840073
:1001B600E0938700E0938600E0938900E09388004F
:1001C600E0938B00E0938A00E093B600E093B000E2
:1001D600E093B100E093B200E093B300E093B40083
:1001E600E0936E00E0936F00E0937000E093690087
:1001F600EDBBE0936800E093C000E8E0E093C10047
:10020600E6E0E093C200E0E0E093C500E3E3E093BC
:10021600C400E0E8E0BFE0E0E0937F00E7E2E093BF
:100226007E00E3E0E0937C00EBEEE0937A00E0E012
:10023600E0937B00ECBDE093BC00A4E10E94C80102
:10024600E0E0EA93A0E062D0A0E0B3E08DD078943D
:10025600FE01EC59FF4FFA93EA93EEE6F0E0FA93CB
:10026600EA93E0910603F09107030E945F060E945D
:100276007206FE01FA93EA93E9E7F0E0FA93EA934D
:10028600E0910803F09109030E945F06DF01CB01AC
:10029600E0E0F0E068EC72E40E94C9080E94720691
:1002A600F894E0E0EA93A0E031D0DE01AC59BF4F0C
:1002B6005BD0E0E0EA93A1E029D0DE0155D0789446
:1002C600A2E3B0E00E947B07C3CFFFCFAA93EBB1B6
:1002D600EF70AE2FE881E07FEA2BEBB98DE08A95CF
:1002E600F1F7429A8DE08A95F1F742988DE08A956A
:1002F600F1F777C0AA93A881E9DFE881E295E88360
:10030600A881E4DF85E88A95F1F76BC0AA93E881B6
:10031600F0E0E55FFC4FE081A981AE0FEBDF49809D
:10032600388022960895A2E00E947906ACE0E2DFCA
:10033600A1E00E947906E0E03E2E4E2E0895AA9393
:10034600A881AA3011F0461448F0E0E0EA9333940D
:10035600A32DDCDFA881AA3009F443C04394409A58
:10036600A881C8DF40983DC0BA93AA931A93A98181
:10037600BA81ED91A983BA831E2FE03019F0A12F1F
:10038600DEDFF5CF188123960895AA93EAB1E06FD0
:10039600EAB93A9A389A399A4298409841986880C8
:1003A600E881E058E0930D03E881E054E0930E0302
:1003B600A4E1B0E00E947B070E947F060E947F06B0
:1003C6000E947F06A0E282DF88EC90E00197F1F7B9
:1003D600A8E290DFA4E08EDFA5E88CDFA6E08ADF46
:1003E600A2DF21960895BA93AA931A930A93AA8133
:1003F600BB8112960E949909309729F1AA81BB8187
:1004060014960E9499098F01309761F00230E0E05E
:100416001E0780F0F80131978F01AA81BB811496DF
:10042600ED93FC93AA81BB8112960E9487063197B1
:10043600AC81A083AA81BB810E949909FF2312F097
:100446000E94870606C0AA81BB81EFEFFFEFED93FE
:10045600FC9319810881259608950E948D06E0E88F
:10046600EA83EFE3EB830E94CF09EE85FF85EF3F3A
:10047600AFEFFA0749F4E885F985FA93EA93A6E817
:10048600B0E00E945005B7C0EF3FAFE7FA0749F466
:10049600E885F985FA93EA93A7E8B0E00E9450054B
:1004A600AAC0AB85A73010F0E6E0EB871B85E12FED
:1004B6001150E03019F00E949406F9CFEC85FD85C5
:1004C6006E857F850E94C90921F430E00E9494065A
:1004D6002DC03B850E94A30609F008F40BC00E94BC
:1004E60094060E94A30628F00E94AE060E94B30658
:1004F600F8CF0DC00E94A30640F40E94AE060E94EB
:10050600BF060E94C6063150F5CF0E949406EC85C0
:10051600FD856E857F850E94CB060E94C6060E94D9
:10052600A30620F00E94AE060E94B30610E0EB85FB
:10053600E117A8F1AC81BD818E819F810E94D20610
:100546000E94CB06DF01CB010E94A705EC83FD8349
:100556006E837F830E94AE060E94C9080E94B80778
:100566000E2F0E94D9060E94E006FF2766277727EE
:100576000E94F107AC81BD818E819F810E947B081C
:100586000E94AE060E94E5060E94C606E12F1F5F86
:10059600E03069F60E94D906EEE2EC93C8CF0E94DD
:1005A600EA063197AA85A08330302CF43195A885C8
:1005B600B985EDE203C0A885B985EBE2EC930E940C
:1005C600EA060E94EA063197BF01A32FEAE00E94DD
:1005D6005309E05DDB01EC930E94EA063197BF0107
:1005E600A32FEAE00E947D09E05DDB01EC93A8857C
:1005F600B985E0E0EC930E94D60960960895BA9317
:10060600AA93EF9761970E94CD0910E0FE01E85A80
:10061600FF4F0190F081E02DE887F987FE01EA5A45
:10062600FF4F0190F081E02DEE83FF83AE81BF8105
:10063600E0E0F0E0ED93FC93DE01A45ABF4F0E9488
:1006460087063197E4912E2FE03009F4E9C1E12FB6
:10065600E03039F4253211F411E002C00E94F006B0
:10066600DEC1E130C1F4253219F40E94F006D6C18C
:1006760012E0E0E0ED8B00E02D3211F401E0CFC195
:100686002B3219F4EBE2ED8BCAC1203219F4E0E209
:10069600ED8BC5C102C0E23039F450E013E02033DF
:1006A60011F40068BCC102C0E33091F4203310F0AD
:1006B6002A3308F007C0AAE05A9F502DE22FE053D4
:1006C6005E0FADC140E02E3211F414E0A8C10FC098
:1006D600E43099F4203310F02A3308F008C00062A1
:1006E600AAE04A9F402DE22FE0534E0F98C12C36C8
:1006F60019F4026015E093C103C0E53009F08FC11B
:10070600E22FE33659F40E94F7060E94FE060E9485
:10071600F706A481AA930E94050780C1E53411F06B
:10072600E53609F403C0E63609F048C0FE017696C0
:10073600EE87FF870E940B070E949D090E94120701
:100746000E941707AD85AA2332F0AD89AB3259F066
:10075600A03281F017C00E9419070E9485070E94E7
:100766001207EDE2ED8B07FF05C0ED89EA930E94C3
:10077600050708C0EE85FF853196EE87FF8731971E
:10078600AD89A08305FF46E0263651F40E9419077D
:100796000E94B2094A93AB89BC890E94BE0509C072
:1007A6000E9419070E94B2094A932A93AC89BD890F
:1007B60054DEFE0176960E941E071EC0E33739F40A
:1007C6000E9417070E9426070E941E070EC0E037E8
:1007D600C1F40E9417070E942607EE87FF87AE85A1
:1007E600BF850E9469051E2F08600F77403011F003
:1007F600411708F001C0142F40E0E0E0EC8B30E038
:100806006DC0E43611F0E93611F4046002C0E53734
:10081600A1F4EAE0EC8B01FF08C0E0E0FAEC6AE93B
:100826007BE30E942B071AE022C0E0E1F7E260E0DA
:1008360070E00E942B0715E01AC0E83511F4086035
:1008460003C0E83709F0EAC0E0E1EC8B01FF08C01D
:10085600E0E0F0E060E070E10E942B0718E007C0DE
:10086600E0E0F0E160E070E00E942B0714E0403029
:1008760011F00F7701C041E001FF08C00E94170781
:100886000E940B0714960E949D090FC002FF07C025
:100896000E9417070E9426070E94400906C00E9470
:1008A60017070E94260766277727EA87FB876C8744
:1008B6007D8702FF12C0AD85AA2342F40E94190764
:1008C6000E9432090E941207EDE2ED8BED89E030BD
:1008D60019F01F5F4F5F01C00B7F342F00FD14C05E
:1008E600151710F4351708F00FC007FF08C002FFF0
:1008F60004C00B7F2D89115001C020E301C020E206
:100906000E94F0065150ECCF141790F4006102FFDC
:1009160006C00E94300709F0515011504150E0E3E3
:10092600EA930E940507503009F051504150ECCF30
:10093600312FEC89E030B9F43030A1F003FF06C066
:10094600EE85FF852591EE87FF8705C0AE85BF85BD
:100956002D91AE87BF870E94F006503009F05150A6
:100966003150EACF51C00E9442070E9458092E2FEB
:100976002A3030F003FF02C0295C01C0295A01C0A9
:10098600205D04FD21C0213360F4A889B9898A89D4
:100996009B89A130E0E0BE07E0E08E07E0E09E071D
:1009A60009F40BC0431740F4531710F000FF01C0C1
:1009B60010C020E207FF08C020E3006102FF04C068
:1009C6000E94300709F051500E94F006503009F09D
:1009D600515031500E9442070E9489090E94120715
:1009E600EC89A889B9898A899B89FF276627772791
:1009F6000E9458090E942B07E889F9896A897B8930
:100A06000E94C90909F0AFCF00FF08C0503031F08D
:100A16005150E0E2EA930E940507F8CF10E00CCEB1
:100A2600AE81BF810E9499090E94D409EF966F9604
:100A36000895FF92F82E26970E94CF090E944B0731
:100A4600309719F4EFEFFFEF23C0DE0116960E94F0
:100A56002E098D010E944B07EE83FF83E0E0E887B5
:100A6600E987DE011A960E942E090E949909FA93D7
:100A7600EA931A930A93E6EFF1E0FA93EA93DE011A
:100A86001A96BDDD9F01AE81BF81E0E0EC93F901CE
:100A96000E94D6092A96FF900895BA93AA93E991DF
:100AA600F991A991B991CD0105900D920020E1F738
:100AB600FC010895BA93AA93A991B991EE27FF274D
:100AC6006D91662311F03196FBCF0895BA93AA93E0
:100AD600AA27BB27E991F9910590002011F01196FC
:100AE600FBCFFD0108950E94B7097B816A81F981D8
:100AF600E88177FB770F67FD7160972F9E5781F02E
:100B060078F0983190F4AA27BB2788270894879510
:100B1600B795A7959A95D1F7EA23FB23682305C0D5
:100B2600E8947727EE27FF2766276F77769508F4F0
:100B3600606877F9A991B99189919991EA17FB07AC
:100B46006807790797FB08950E94B7090E94A809CC
:100B56000E9476050E94AD0919F40E94A30909C0F6
:100B6600E6F70E94A309A0E0B0E080E89FE30E94B8
:100B7600240824960895CED0E0E0EA83EFE3EB83E1
:100B86001A930A93EB85FC85EF3FAFEFFA0731F432
:100B960086D1AEE8B0E00E9450058AC0EF3FAFE7CD
:100BA600FA0731F47CD1AFE8B0E00E94500580C06E
:100BB600AC85AA2352F4E985FA856B857C850E946B
:100BC600850772D176D1EDE2EC93A885A73010F0B7
:100BD600E6E0E8871885E12F1150E03021F070D16A
:100BE600DED073D1F8CF76D10E942B085DD110E00C
:100BF600E0E0F0E060E87FE368D16CD10E940E0986
:100C060068F05ED1B9D061D11F5F173230F047D19D
:100C1600A3E9B0E00E9450054BC0EFCF103021F49D
:100C260048D1E0E3EC9320C0E12F1150E030E1F031
:100C360047D1B5D0ADD0DF01CB010E94A70545D184
:100C460049D10E94C9080E94B8070E2F32D1B5D0EB
:100C5600F0E036D10E9440090E94F1070E947B080D
:100C660042D1B0D021D1E0CFE885E030E9F021D102
:100C7600EEE2EC93E885E150E887EF5FA9F033D127
:100C86007BD012D1E985FA856B857C850E94B807F1
:100C96000E2F0FD192D0F0E026D10E9440090E947B
:100CA600F10790D001D1E6CFAE81BF81E0E0EC93B1
:100CB600198108812D960895662777270E94F107E6
:100CC600A0E0B0E080EA90E40E947B08DF01CB015F
:100CD600E0E0F0E060E874E40E94C90808950E942C
:100CE600B20984E00E941C05289608950E947D01A1
:100CF600A3E0B0E00C947B07A0E30E94690188ECB6
:100D060090E00197F1F70895ED91FD913196FE93EC
:100D1600EE930895BA93AA932497E0E0E883E983D3
:100D26000895AC81BD818E819F81E0E0F0E060E2B4
:100D360071E40E947B08EC83FD836E837F830895B4
:100D4600EC81FD816E817F81AC85BD858E859F8519
:100D56000E940E090895AC85BD858E859F850895F0
:100D6600EDECFCEC6CEC7DE30E947B08EC87FD87E8
:100D76006E877F873F5F0895E0E0F0E060E271E410
:100D86000E947B080895EC87FD876E877F8708950C
:100D9600A0E0B0E080E09FE30E942B080895EDEC10
:100DA600FCEC6CEC7DE30E947B080895A885B98570
:100DB6001196A887B98711970895E02FE05DEC9307
:100DC600E02F08950E94BC090E9424080895E88532
:100DD600F9853196E887F98708952A93AF81B88512
:100DE600E985FA8509950895FE01E65AFF4F0190B7
:100DF600F081E02D08953497DE01A65ABF4FED939A
:100E0600FC930895AF81B885E985FA85099508951B
:100E1600DE01A65ABF4F0D90BC91A02D0895EA871A
:100E2600FB876C877D870895DFDFE5CFEA85FB8545
:100E36006C857D850895EE87FF87AE85BF850E9408
:100E46005D051E2F0895E4DF14960E949909089502
:100E5600E88BF98B6A8B7B8B08950B7FED89EA9380
:100E6600DE01A95ABF4F0D90BC91A02DFE01E75A95
:100E7600FF4F0190F081E02D099550300895E889E3
:100E8600F9896A897B89AA85BB858C859D850895A4
:100E9600DE011C960E942E090E9499090895EE8192
:100EA600FF81FA93EA930895E987FA876B877C872F
:100EB6000895AE81BF811196AE83BF8311970895C1
:100EC600AA81BB818C819D810895EA83FB836C8313
:100ED6007D830895EA81FB816C817D81A985BA8530
:100EE6008B859C850895A985BA858B859C850895F3
:100EF600109639F080ED97E00197F1F7A8951197D4
:100F0600C9F7089530976040704009F07058089509
:100F1600552342F4503811F4E0FF04C03196691F9E
:100F2600791F6BF050E8572711F45F93CFC05F3FEE
:100F360031F0660F000C57956795752F08955F93EE
:100F460000200AF0CFC0C8C050E8192E1522880F1D
:100F5600991F9527550F879550E8072E0522660F8E
:100F6600771F7527550F67950895689401C0E89413
:100F76005F93F2DF703818F07F3F08F4A7C056E1A0
:100F8600571BAAF4519558300EF4593030F0EFEF54
:100F9600FFEF6FEF7FE777F91AC077275523B9F090
:100FA600EE0FFF1F661F771F5A95D1F710C07727E0
:100FB600583028F0EF2FF62F672F5850F9CF5523CA
:100FC60031F076956795F795E7955A95D1F7002014
:100FD6000AF445D15F910895689401C0E89430976A
:100FE60060407040B1F0002426F0772312F400949C
:100FF60036D1172E7EE1112032F07A95EE0FFF1FC3
:10100600661F111CF9CFEF2FF62F612D5F938ADF34
:101016005F9108954F93AF01FD01DA01AB01BC0169
:10102600CA01402D012C142E4F910895EA0FFB1F83
:10103600681F0895E095F0956095EF5FFF4F6F4F3D
:1010460008955F9381DF903871F150E8152604C04A
:101056005F937ADF903839F1703821F1572F591B99
:101066002BF112F4D7DFFACF583118F0AA27BB2795
:101076008827583028F0AB2FB82F88275850F9CF3B
:10108600552329F08695B795A7955A95D9F7502DEA
:10109600512572F0CBDF38F46795F795E795739590
:1010A60013F420C0B7DF3EDF5F910895D8F7FBCF7A
:1010B600EA1BFB0B680B51F010F40094BBDF6623B0
:1010C60092F3EE0FFF1F661F7A95CBF7EE27FF27E9
:1010D600662777275F910895EFEFFFEF6FE77FEFC2
:1010E6005F910895EFEFFFEF6FE77FE75F91089558
:1010F6005F932ADF703851F3903841F30124089446
:10110600791F23F41CF300203AF3ECCF0F921F93C0
:101116002F933F934F93112722279927689FA0016A
:101126008F9F302D410D591F6B9F300D411D591F4B
:101136008E9F27D0BF9F25D06A9F23D0BE9F1DD0EC
:10114600AF9F1BD0AE9F110D291F391F491F591F75
:10115600E32FF42F652F522F4F913F912F911F911F
:101166000F9066232AF0550FEE1FFF1F661F02C061
:1011760073954BF2CDDE5F910895100D211D391F39
:1011860002C0200D311D491F591F08955F93DCDEF3
:10119600703821F411200AF49FCFA4CF903809F4B7
:1011A60095CF01240894970B1BF4D4F30020F3CFBA
:1011B600792F1F932F933F934F93112411272227A3
:1011C60033274427552790E2AE17BF078607410706
:1011D60030F0AE1BBF0B860B410B089401C0889400
:1011E600551F221F331F111CAA1FBB1F881F441F18
:1011F6009A9551F7F901612D4F913F912F911F91CA
:10120600662332F0550FEE1FFF1F661F7A9543F2D5
:101216007FDE5F91089599239AF0772342F097171E
:1012260048F029F4AE17BF07860720F031F09894EE
:101236008894089598940894089518948894089525
:101246007723C2F7971798F3A9F7EA17FB076807FA
:1012560088F399F3ECCF0024AF0DB01D0895F095F7
:1012660060957095E195FF4F6F4F7F4F0895FE2F64
:10127600FF0FFF0B6F2F7F2F08956F2F660F660BE3
:10128600762F0895002498E0AA0F001C0E1A10F479
:101296000E0E01C0A1609A95B9F7EA2FA02D089508
:1012A60039D0F0DF0EF4E19508953F934F935F93A5
:1012B600002411244427552730E2AA0FBB1F881F9C
:1012C600991F001C111C441F551F0E1A1F0A460B9E
:1012D600570B28F40E0E1F1E461F571F01C0A16094
:1012E6003A9559F7FD01BC01D001CA015F914F91B2
:1012F6003F910895E894A7FF02C0A1956894E7FD81
:10130600E195C0DFEA2F0EF4E1950895CEDFFD01E9
:10131600BC010895E894E7FF02C0E1956894A7FF31
:1013260004C0A19500F8039400FA0895ED91FC918C
:1013360011970895ED91FD916D917C911397089504
:10134600E881F9816A817B810895A881B9818A81C2
:101356009B810895E883F9836A837B8308957A9352
:101366006A93FA93EA9308959A938A93BA93AA93FF
:101376000895182E862F612D192E972F712D1B2E4D
:10138600BF2FF12D1A2EAE2FE12D08953097604014
:10139600704008955A934A933A932A931A930A935C
:1013A60008955D814C813B812A81198108810895C8
:00000001FF
