:0A0000000C9440000C9400000C94D6
:10000A0000000C9400000C9400000C9400000C9466
:10001A0000000C9400000C9400000C9400000C9456
:10002A0000000C9400000C9400000C9400000C9446
:10003A0000000C9400000C9400000C9400000C9436
:10004A0000000C9400000C9400000C945D000C94C9
:10005A0000000C9400000C9400000C94000010277F
:10006A00E80364000A00010000100001100001000A
:10007A0025640D0A0000F894EE27EFBBF1E0F5BF06
:10008A00E5BF8DE0A2E0BB27ED938A95E9F780E012
:10009A0098E0A0E0B1E0ED930197E9F7E0E0EEBB6C
:1000AA00EFEFEDBFE8E0EEBFC0E0D3E00C948C00C8
:1000BA000A921A92FA926A937A938A939A93AA93D1
:1000CA00BA93EA93FA93EFB7EA931A930A930091D1
:1000DA00780010917900EAE7F0E0FA93EA93F801E0
:1000EA00662777270E94720284E084D126960991B6
:1000FA001991E991EFBFF991E991B991A991999172
:10010A00899179916991F990199009901895E0E887
:10011A00E0936100E0E0E0936100E4B9E5B9E7B992
:10012A00E8B9EAB9EBB9E093C000E8E0E093C100AE
:10013A00E6E0E093C200E0E0E093C500E3E3E09389
:10014A00C400E0E0E0937E00E0937C00EBEAE093F9
:10015A007A00E0E0E0937B007894FFCFFFCFAA9388
:10016A00E091C000E072E1F3E881E093C6002196D5
:10017A000895BA93AA93AA81F2DFA881B981ED9171
:10018A00FD913196FE93EE9323960895BA93AA931E
:10019A0026970E94770210E0AC85BD85E0E0F0E08A
:1001AA00ED93FC93EA89FB893196EA8BFB8B3197B5
:1001BA00E4912E2FE03009F415C1E12FE03039F433
:1001CA00253211F411E002C00E943D020AC1E13059
:1001DA00A9F4253219F40E943D0202C112E040E05E
:1001EA0000E02D3211F401E0FCC02B3211F44BE295
:1001FA00F8C0203211F440E2F4C002C0E23039F40F
:10020A0050E013E0203311F40068EBC003C0E33080
:10021A0009F0E7C0203310F02A3308F007C0AAE03B
:10022A005A9F502DE22FE0535E0FDBC0E22FE336D8
:10023A0049F40E944402E889F989A481AA930E9498
:10024A004A02CEC0E33741F40E9444020E9450029F
:10025A000E9424021E2F0AC0E03761F40E94440261
:10026A000E9450020E9430021E2F086002600F771F
:10027A0030E034C0E43611F0E93611F4046002C00B
:10028A00E53731F4E8E6F0E0EE83FF8315E00CC0D1
:10029A00E83511F4086003C0E83709F0A1C0E2E7C5
:1002AA00F0E0EE83FF8314E002FF14C00E944402D0
:1002BA000E945A02AB85AA233AF4EA85FB850E947A
:1002CA006602EA87FB874DE2403011F01F5F01C0EA
:1002DA000B7F04C00E9444020E945A0200FD11C012
:1002EA00151778F407FF08C002FF04C00B7F242FFC
:1002FA00115001C020E301C020E20E943D0251508A
:10030A00EFCF312F01FF17C03030A1F003FF06C035
:10031A00EE81FF812591EE83FF8305C0AE81BF8107
:10032A002D91AE83BF830E943D02503009F0515097
:10033A003150EACF4BC020E3EE81FF810E946E026A
:10034A00E887F987EE81FF813296EE83FF83E8859D
:10035A00F985AA85BB85AE17BF0750F02F5FA88520
:10036A00B985EA85FB85EA1BFB0BEA87FB87EFCF9A
:10037A002A3328F003FF02C0295F01C0295D04FD6A
:10038A001AC0213320F4A885B985119709F409C048
:10039A00531710F000FF01C013C020E207FF0BC083
:1003AA0020E3006102FF07C00B7F4A930E944A02C2
:1003BA00503009F051500E943D02503009F051501E
:1003CA003150A885B985129708F0B5CF00FF08C04B
:1003DA00503031F05150E0E2EA930E944A02F8CFDD
:1003EA0010E0E0CEAC85BD850E946A020E947E02C2
:1003FA0064960895FF92F82E26971A930A93DE01BF
:10040A0014960E9462028D01E0E0EC83ED83EE8394
:10041A00EF83DE0118960E9462020E946A02FA9332
:10042A00EA931A930A93EEEBF0E0FA93EA93DE0169
:10043A001896ACDE198108812896FF900895BA9320
:10044A00AA93A991B991EE27FF276D91662311F01E
:10045A003196FBCF0895BA93AA93AA27BB27E991AD
:10046A00F9910590002011F01196FBCFFD01089536
:10047A002A93AD85BE85EF85F88909950895E8899F
:10048A00F9893497E88BF98B0895AD85BE85EF8598
:10049A00F88909950895A889B98914960E946A026B
:1004AA00EE83FF83AE81BF810895A889B989149626
:1004BA000E946A02EA87FB8708950024AF0DB01DE7
:1004CA000895F195E195F0400895ED91FC91119709
:1004DA0008950590F491E02D08957A936A93FA931A
:1004EA00EA9308955A934A933A932A931A930A934A
:1004FA0008955D814C813B812A8119810881089583
:00000001FF
