:0A0000000C944F000C9400000C94C7
:10000A0000000C9400000C9400000C9400000C9466
:10001A0000000C9400000C9400000C9400000C9456
:10002A0000000C9400000C9400000C9400000C9446
:10003A0000000C9400000C9400000C9400000C9436
:10004A0000000C9400000C9400000C947E000C94A8
:10005A0000000C9400000C9400000C940000486509
:10006A006C6C6F00252E32662056000080C02D4E23
:10007A00414E000001002D4E414E00494E460000FF
:10008A0006000003680002000B03760001000F035C
:10009A007E000000F894EE27EFBBF1E0F5BFE5BF64
:1000AA008DE0A2E0BB27ED938A95E9F780E098E01E
:1000BA00A0E0B1E0ED930197E9F7EAE8F0E0859175
:1000CA009591009761F0A591B59105901590BF01A2
:1000DA00F00105900D920197E1F7FB01F0CFE0E006
:1000EA00EEBBEFEFEDBFE8E0EEBFC0E0D3E00C946B
:1000FA00B3008A93AA93BA93EA93FA93EFB7EA936F
:10010A00E0910A03A6E0B3E0F0E0EE0FFF1FAE0FA6
:10011A00BF1FE0917800F0917900ED93FC93A091D4
:10012A000A03AF5FA0930A03A23018F0E0E0E0935D
:10013A000A03E0910A03ED5FE0937C008BE18A9564
:10014A00F1F7E0917A00E064E0937A00E991EFBF79
:10015A00F991E991B991A99189911895EF97EF973A
:10016A00EF972B97E0E8E0936100E0E0E09361000D
:10017A00E4B9E5B9E7E0E7B9E0E0E8B9E0EFEAB900
:10018A00E0E0EBB9E4BDE5BDE6BDE7BDE8BDE0935F
:10019A008000E0938100E0938500E0938400E0937F
:1001AA008700E0938600E0938900E0938800E0935B
:1001BA008B00E0938A00E093B600E093B000E093EE
:1001CA00B100E093B200E093B300E093B400E0938F
:1001DA006E00E0936F00E0937000E0936900EDBB5E
:1001EA00E0936800E093C000E8E0E093C100E6E035
:1001FA00E093C200E0E0E093C500E3E3E093C400CB
:10020A00E0E8E0BFE0E0E0937F00E7E2E0937E0011
:10021A00E3E0E0937C00EBEEE0937A00E0E0E09329
:10022A007B00ECBDE093BC00A4E191D0E0E0EA934E
:10023A00A0E04ED0A0E0B3E079D07894FE01EC596A
:10024A00FF4F0E944306E0910603F09107030E94C4
:10025A004A06FE010E944306E0910803F091090351
:10026A000E944A06F894E0E0EA93A0E031D0DE0169
:10027A00AC59BF4F5BD0E0E0EA93A1E029D0DE01A0
:10028A0055D07894A2E3B0E00E946507D7CFFFCF9C
:10029A00AA93EBB1EF70AE2FE881E07FEA2BEBB9BE
:1002AA008DE08A95F1F7429A8DE08A95F1F74298A6
:1002BA008DE08A95F1F777C0AA93A881E9DFE881F2
:1002CA00E295E883A881E4DF85E88A95F1F76BC0B7
:1002DA00AA93E881F0E0E55FFC4FE081A981AE0FC7
:1002EA00EBDF4980388022960895A2E00E946306D7
:1002FA00ACE0E2DFA1E00E946306E0E03E2E4E2E73
:10030A000895AA93A881AA3011F0461448F0E0E0B3
:10031A00EA933394A32DDCDFA881AA3009F443C001
:10032A004394409AA881C8DF40983DC0BA93AA93E3
:10033A001A93A981BA81ED91A983BA831E2FE0305D
:10034A0019F0A12FDEDFF5CF188123960895AA931D
:10035A00EAB1E06FEAB93A9A389A399A42984098DB
:10036A0041986880E881E058E0930D03E881E05401
:10037A00E0930E03A4E1B0E00E9465070E946906BB
:10038A000E9469060E946906A0E282DF88EC90E07A
:10039A000197F1F7A8E290DFA4E08EDFA5E88CDFF1
:1003AA00A6E08ADFA2DF21960895BA93AA931A9348
:1003BA000A93AA81BB8112960E948309309729F178
:1003CA00AA81BB8114960E9483098F01309761F03C
:1003DA000230E0E01E0780F0F80131978F01AA8110
:1003EA00BB811496ED93FC93AA81BB8112960E945D
:1003FA0071063197AC81A083AA81BB810E948309CF
:10040A00FF2312F00E94710606C0AA81BB81EFEF9A
:10041A00FFEFED93FC9319810881259608950E94B8
:10042A007706E0E8EA83EFE3EB830E94B909EE85F9
:10043A00FF85EF3FAFEFFA0749F4E885F985FA93AC
:10044A00EA93A8E7B0E00E943405B7C0EF3FAFE7F0
:10045A00FA0749F4E885F985FA93EA93A9E7B0E03F
:10046A000E943405AAC0AB85A73010F0E6E0EB87FE
:10047A001B85E12F1150E03019F00E947E06F9CF5A
:10048A00EC85FD856E857F850E94B30921F430E0F5
:10049A000E947E062DC03B850E948D0609F008F455
:1004AA000BC00E947E060E948D0628F00E949806C4
:1004BA000E949D06F8CF0DC00E948D0640F40E944E
:1004CA0098060E94A9060E94B0063150F5CF0E94F4
:1004DA007E06EC85FD856E857F850E94B5060E94A5
:1004EA00B0060E948D0620F00E9498060E949D0682
:1004FA0010E0EB85E117A8F1AC81BD818E819F8167
:10050A000E94BC060E94B506DF01CB010E948B0542
:10051A00EC83FD836E837F830E9498060E94B30852
:10052A000E94A2070E2F0E94C3060E94CA06FF2736
:10053A00662777270E94DB07AC81BD818E819F8168
:10054A000E9465080E9498060E94CF060E94B00683
:10055A00E12F1F5FE03069F60E94C306EEE2EC93DA
:10056A00C8CF0E94D4063197AA85A08330302CF4D4
:10057A003195A885B985EDE203C0A885B985EBE276
:10058A00EC930E94D4060E94D4063197BF01A32F90
:10059A00EAE00E943D09E05DDB01EC930E94D4068B
:1005AA003197BF01A32FEAE00E946709E05DDB01F2
:1005BA00EC93A885B985E0E0EC930E94C0096096A7
:1005CA000895BA93AA93EF9761970E94B70910E02A
:1005DA00FE01E85AFF4F0190F081E02DE887F98784
:1005EA00FE01EA5AFF4F0190F081E02DEE83FF836E
:1005FA00AE81BF81E0E0F0E0ED93FC93DE01A45A06
:10060A00BF4F0E9471063197E4912E2FE03009F412
:10061A00E9C1E12FE03039F4253211F411E002C0CA
:10062A000E94DA06DEC1E130C1F4253219F40E94D3
:10063A00DA06D6C112E0E0E0ED8B00E02D3211F4CB
:10064A0001E0CFC12B3219F4EBE2ED8BCAC12032A3
:10065A0019F4E0E2ED8BC5C102C0E23039F450E092
:10066A0013E0203311F40068BCC102C0E33091F4F6
:10067A00203310F02A3308F007C0AAE05A9F502D01
:10068A00E22FE0535E0FADC140E02E3211F414E0C8
:10069A00A8C10FC0E43099F4203310F02A3308F0CF
:1006AA0008C00062AAE04A9F402DE22FE0534E0F95
:1006BA0098C12C3619F4026015E093C103C0E530E5
:1006CA0009F08FC1E22FE33659F40E94E1060E9435
:1006DA00E8060E94E106A481AA930E94EF0680C15F
:1006EA00E53411F0E53609F403C0E63609F048C0EE
:1006FA00FE017696EE87FF870E94F5060E9487091B
:10070A000E94FC060E940107AD85AA2332F0AD893A
:10071A00AB3259F0A03281F017C00E9403070E9441
:10072A006F070E94FC06EDE2ED8B07FF05C0ED891D
:10073A00EA930E94EF0608C0EE85FF853196EE87A0
:10074A00FF873197AD89A08305FF46E0263651F42D
:10075A000E9403070E949C094A93AB89BC890E94A4
:10076A00A20509C00E9403070E949C094A932A9382
:10077A00AC89BD8954DEFE0176960E9408071EC028
:10078A00E33739F40E9401070E9410070E94080704
:10079A000EC0E037C1F40E9401070E941007EE87DD
:1007AA00FF87AE85BF850E944D051E2F08600F7713
:1007BA00403011F0411708F001C0142F40E0E0E08A
:1007CA00EC8B30E06DC0E43611F0E93611F40460C8
:1007DA0002C0E537A1F4EAE0EC8B01FF08C0E0E0D3
:1007EA00FAEC6AE97BE30E9415071AE022C0E0E10D
:1007FA00F7E260E070E00E94150715E01AC0E835DC
:10080A0011F4086003C0E83709F0EAC0E0E1EC8BB4
:10081A0001FF08C0E0E0F0E060E070E10E94150727
:10082A0018E007C0E0E0F0E160E070E00E94150720
:10083A0014E0403011F00F7701C041E001FF08C019
:10084A000E9401070E94F50614960E9487090FC0AC
:10085A0002FF07C00E9401070E9410070E942A098E
:10086A0006C00E9401070E94100766277727EA87B9
:10087A00FB876C877D8702FF12C0AD85AA2342F4ED
:10088A000E9403070E941C090E94FC06EDE2ED8B00
:10089A00ED89E03019F01F5F4F5F01C00B7F342FE5
:1008AA0000FD14C0151710F4351708F00FC007FF24
:1008BA0008C002FF04C00B7F2D89115001C020E33C
:1008CA0001C020E20E94DA065150ECCF141790F4CE
:1008DA00006102FF06C00E941A0709F05150115028
:1008EA004150E0E3EA930E94EF06503009F051507C
:1008FA004150ECCF312FEC89E030B9F43030A1F01F
:10090A0003FF06C0EE85FF852591EE87FF8705C0A8
:10091A00AE85BF852D91AE87BF870E94DA0650301B
:10092A0009F051503150EACF51C00E942C070E9461
:10093A0042092E2F2A3030F003FF02C0295C01C081
:10094A00295A01C0205D04FD21C0213360F4A88921
:10095A00B9898A899B89A130E0E0BE07E0E08E0769
:10096A00E0E09E0709F40BC0431740F4531710F058
:10097A0000FF01C010C020E207FF08C020E30061A9
:10098A0002FF04C00E941A0709F051500E94DA06B9
:10099A00503009F0515031500E942C070E947309BF
:1009AA000E94FC06EC89A889B9898A899B89FF2754
:1009BA00662777270E9442090E941507E889F98964
:1009CA006A897B890E94B30909F0AFCF00FF08C08A
:1009DA00503031F05150E0E2EA930E94EF06F8CF2E
:1009EA0010E00CCEAE81BF810E9483090E94BE092D
:1009FA00EF966F960895FF92F82E26970E94B909EE
:100A0A000E943507309719F4EFEFFFEF23C0DE019C
:100A1A0016960E9418098D010E943507EE83FF83FE
:100A2A00E0E0E887E987DE011A960E9418090E9429
:100A3A008309FA93EA931A930A93EAEDF1E0FA9397
:100A4A00EA93DE011A96BDDD9F01AE81BF81E0E027
:100A5A00EC93F9010E94C0092A96FF900895BA936F
:100A6A00AA93E991F991A991B991CD0105900D92B5
:100A7A000020E1F7FC010895BA93AA93A991B991CC
:100A8A00EE27FF276D91662311F03196FBCF08956B
:100A9A00BA93AA93AA27BB27E991F9910590002056
:100AAA0011F01196FBCFFD0108950E94A1097B81E7
:100ABA006A81F981E88177FB770F67FD7160972F6B
:100ACA009E5781F078F0983190F4AA27BB2788279F
:100ADA0008948795B795A7959A95D1F7EA23FB23AA
:100AEA00682305C0E8947727EE27FF2766276F77E4
:100AFA00769508F4606877F9A991B99189919991E5
:100B0A00EA17FB076807790797FB08950E94A1096E
:100B1A000E9492090E945A050E94970919F40E949C
:100B2A008D0909C0E6F70E948D09A0E0B0E080E8CF
:100B3A009FE30E940E0824960895D4D0E0E0EA8349
:100B4A00EFE3EB831A930A93EB85FC85EF3FAFEF54
:100B5A00FA0731F48CD1A0E8B0E00E9434058AC0CB
:100B6A00EF3FAFE7FA0731F482D1A1E8B0E00E9483
:100B7A00340580C0AC85AA2352F4E985FA856B85D1
:100B8A007C850E946F0778D17CD1EDE2EC93A88531
:100B9A00A73010F0E6E0E8871885E12F1150E03021
:100BAA0021F076D1E4D079D1F8CF7CD10E94150812
:100BBA0063D110E0E0E0F0E060E87FE36ED172D14B
:100BCA000E94F80868F064D1BFD067D11F5F17325E
:100BDA0030F04DD1A5E8B0E00E9434054BC0EFCF0C
:100BEA00103021F44ED1E0E3EC9320C0E12F1150F4
:100BFA00E030E1F04DD1BBD0B3D0DF01CB010E9490
:100C0A008B054BD14FD10E94B3080E94A2070E2F29
:100C1A0038D1BBD0F0E03CD10E942A090E94DB0700
:100C2A000E94650848D1B6D027D1E0CFE885E030E8
:100C3A00E9F027D1EEE2EC93E885E150E887EF5F2F
:100C4A00A9F039D181D018D1E985FA856B857C85DF
:100C5A000E94A2070E2F15D198D0F0E02CD10E9445
:100C6A002A090E94DB0796D007D1E6CFAE81BF8161
:100C7A00E0E0EC93198108812D960895FA93EA939E
:100C8A00EEE6F0E0FA93EA930895662777270E9442
:100C9A00DB07A0E0B0E080EA90E40E946508DF018B
:100CAA00CB01E0E0F0E060E874E40E94B3080E943F
:100CBA009C0984E00E940005289608950E9461011B
:100CCA00A3E0B0E00C946507A0E30E944D0188EC14
:100CDA0090E00197F1F70895ED91FD913196FE9319
:100CEA00EE930895BA93AA932497E0E0E883E98300
:100CFA000895AC81BD818E819F81E0E0F0E060E2E1
:100D0A0071E40E946508EC83FD836E837F830895F6
:100D1A00EC81FD816E817F81AC85BD858E859F8545
:100D2A000E94F8080895AC85BD858E859F85089533
:100D3A00EDECFCEC6CEC7DE30E946508EC87FD872A
:100D4A006E877F873F5F0895E0E0F0E060E271E43C
:100D5A000E9465080895EC87FD876E877F8708954E
:100D6A00A0E0B0E080E09FE30E9415080895EDEC52
:100D7A00FCEC6CEC7DE30E9465080895A885B985B2
:100D8A001196A887B98711970895E02FE05DEC9333
:100D9A00E02F08950E94A6090E940E080895E8858A
:100DAA00F9853196E887F98708952A93AF81B8853E
:100DBA00E985FA8509950895FE01E65AFF4F0190E3
:100DCA00F081E02D08953497DE01A65ABF4FED93C6
:100DDA00FC930895AF81B885E985FA850995089548
:100DEA00DE01A65ABF4F0D90BC91A02D0895EA8747
:100DFA00FB876C877D870895DFDFE5CFEA85FB8572
:100E0A006C857D850895EE87FF87AE85BF850E9434
:100E1A0041051E2F0895E4DF14960E948309089560
:100E2A00E88BF98B6A8B7B8B08950B7FED89EA93AC
:100E3A00DE01A95ABF4F0D90BC91A02DFE01E75AC1
:100E4A00FF4F0190F081E02D099550300895E8890F
:100E5A00F9896A897B89AA85BB858C859D850895D0
:100E6A00DE011C960E9418090E9483090895EE81EA
:100E7A00FF81FA93EA930895E987FA876B877C875B
:100E8A000895AE81BF811196AE83BF8311970895ED
:100E9A00AA81BB818C819D810895EA83FB836C833F
:100EAA007D830895EA81FB816C817D81A985BA855C
:100EBA008B859C850895A985BA858B859C8508951F
:100ECA00109639F080ED97E00197F1F7A895119700
:100EDA00C9F7089530976040704009F07058089536
:100EEA00552342F4503811F4E0FF04C03196691FCB
:100EFA00791F6BF050E8572711F45F93CFC05F3F1B
:100F0A0031F0660F000C57956795752F08955F931A
:100F1A0000200AF0CFC0C8C050E8192E1522880F49
:100F2A00991F9527550F879550E8072E0522660FBA
:100F3A00771F7527550F67950895689401C0E8943F
:100F4A005F93F2DF703818F07F3F08F4A7C056E1CC
:100F5A00571BAAF4519558300EF4593030F0EFEF80
:100F6A00FFEF6FEF7FE777F91AC077275523B9F0BC
:100F7A00EE0FFF1F661F771F5A95D1F710C077270C
:100F8A00583028F0EF2FF62F672F5850F9CF5523F6
:100F9A0031F076956795F795E7955A95D1F7002040
:100FAA000AF445D15F910895689401C0E894309796
:100FBA0060407040B1F0002426F0772312F40094C8
:100FCA0036D1172E7EE1112032F07A95EE0FFF1FEF
:100FDA00661F111CF9CFEF2FF62F612D5F938ADF61
:100FEA005F9108954F93AF01FD01DA01AB01BC0196
:100FFA00CA01402D012C142E4F910895EA0FFB1FB0
:10100A00681F0895E095F0956095EF5FFF4F6F4F69
:10101A0008955F9381DF903871F150E8152604C076
:10102A005F937ADF903839F1703821F1572F591BC5
:10103A002BF112F4D7DFFACF583118F0AA27BB27C1
:10104A008827583028F0AB2FB82F88275850F9CF67
:10105A00552329F08695B795A7955A95D9F7502D16
:10106A00512572F0CBDF38F46795F795E7957395BC
:10107A0013F420C0B7DF3EDF5F910895D8F7FBCFA6
:10108A00EA1BFB0B680B51F010F40094BBDF6623DC
:10109A0092F3EE0FFF1F661F7A95CBF7EE27FF2715
:1010AA00662777275F910895EFEFFFEF6FE77FEFEE
:1010BA005F910895EFEFFFEF6FE77FE75F91089584
:1010CA005F932ADF703851F3903841F30124089472
:1010DA00791F23F41CF300203AF3ECCF0F921F93ED
:1010EA002F933F934F93112722279927689FA00197
:1010FA008F9F302D410D591F6B9F300D411D591F78
:10110A008E9F27D0BF9F25D06A9F23D0BE9F1DD018
:10111A00AF9F1BD0AE9F110D291F391F491F591FA1
:10112A00E32FF42F652F522F4F913F912F911F914B
:10113A000F9066232AF0550FEE1FFF1F661F02C08D
:10114A0073954BF2CDDE5F910895100D211D391F65
:10115A0002C0200D311D491F591F08955F93DCDE1F
:10116A00703821F411200AF49FCFA4CF903809F4E3
:10117A0095CF01240894970B1BF4D4F30020F3CFE6
:10118A00792F1F932F933F934F93112411272227CF
:10119A0033274427552790E2AE17BF078607410732
:1011AA0030F0AE1BBF0B860B410B089401C088942C
:1011BA00551F221F331F111CAA1FBB1F881F441F44
:1011CA009A9551F7F901612D4F913F912F911F91F6
:1011DA00662332F0550FEE1FFF1F661F7A9543F202
:1011EA007FDE5F91089599239AF0772342F097174B
:1011FA0048F029F4AE17BF07860720F031F098941B
:10120A008894089598940894089518948894089551
:10121A007723C2F7971798F3A9F7EA17FB07680726
:10122A0088F399F3ECCF0024AF0DB01D0895F09523
:10123A0060957095E195FF4F6F4F7F4F0895FE2F90
:10124A00FF0FFF0B6F2F7F2F08956F2F660F660B0F
:10125A00762F0895002498E0AA0F001C0E1A10F4A5
:10126A000E0E01C0A1609A95B9F7EA2FA02D089534
:10127A0039D0F0DF0EF4E19508953F934F935F93D1
:10128A00002411244427552730E2AA0FBB1F881FC8
:10129A00991F001C111C441F551F0E1A1F0A460BCA
:1012AA00570B28F40E0E1F1E461F571F01C0A160C0
:1012BA003A9559F7FD01BC01D001CA015F914F91DE
:1012CA003F910895E894A7FF02C0A1956894E7FDAD
:1012DA00E195C0DFEA2F0EF4E1950895CEDFFD0116
:1012EA00BC010895E894E7FF02C0E1956894A7FF5E
:1012FA0004C0A19500F8039400FA0895ED91FC91B9
:10130A0011970895ED91FD916D917C911397089530
:10131A00E881F9816A817B810895A881B9818A81EE
:10132A009B810895E883F9836A837B8308957A937E
:10133A006A93FA93EA9308959A938A93BA93AA932B
:10134A000895182E862F612D192E972F712D1B2E79
:10135A00BF2FF12D1A2EAE2FE12D08953097604040
:10136A00704008955A934A933A932A931A930A9388
:10137A0008955D814C813B812A81198108810895F4
:00000001FF
