:020000000C945E
:1000020039000C9400000C9400000C9400000C9435
:1000120000000C9400000C9400000C9400000C945E
:1000220000000C9400000C9400000C9400000C944E
:1000320000000C9400000C9400000C9400000C943E
:1000420068000C9400000C9400000C9400000C94C6
:1000520000000C9400000C9400000C9400000C941E
:1000620000000C9400000000010004006800000081
:10007200F894EE27EFBBF1E0F5BFE5BF8DE0A2E01B
:10008200BB27ED938A95E9F780E098E0A0E0B1E024
:10009200ED930197E9F7EAE6F0E0859195910097F3
:1000A20061F0A591B59105901590BF01F001059001
:1000B2000D920197E1F7FB01F0CFE0E0EEBBEFEF2D
:1000C200EDBFE8E0EEBFC0E0D3E00C947600AA9367
:1000D200EA93EFB7EA93E5B1A1E0EA27E5B946BCB6
:1000E200E991EFBFE991A9911895E0E8E0936100E9
:1000F200E0E0E0936100EFEFE4B9E0E0E5B9E7B9F1
:10010200E8B9EAB9EBB9E4BDE1E0E5BDE0E0E6BD9E
:10011200E7BDE8BDE1E0E0936E007894A4E6B0E0CC
:100122000E949700EAE04E0EF9CFFFCF109639F009
:1001320080ED97E00197F1F7A8951197C9F7089517
:00000001FF
