:080000000C944D000C9400006B
:100008000C9400000C9400000C9400000C94000068
:100018000C9400000C9400000C9400000C94000058
:100028000C9400000C9400000C9400000C94000048
:100038000C9400000C9400000C9400000C94000038
:100048000C9400000C9400000C9400000C94000028
:100058000C9400000C9400000C94BE030C94000057
:100068001027E80364000A000100001000011000D6
:100078000100742564203D20256325642E25640035
:1000880080C00700020035038800010002038A00CF
:100098000000F894EE27EFBBF1E0F5BFE5BF8DE077
:1000A800A2E0BB27ED938A95E9F780E098E0A0E00D
:1000B800B1E0ED930197E9F7ECE8F0E085919591CF
:1000C800009761F0A591B59105901590BF01F001D9
:1000D80005900D920197E1F7FB01F0CFE0E0EEBB50
:1000E800EFEFEDBFE8E0EEBFC0E0D3E00C94B60060
:1000F800BA93AA930E94C00630E2AE81BF81EAE0BB
:10010800F0E00E948B061E2FAE81BF81EAE0F0E08E
:100118000E9486060E2F003014F4103009F404C033
:100128000F5F003009F43DE2E885F985FA93EA9318
:10013800EAE7F0E0FA93EA93E885F9850E945C061D
:100148000E94B906E32F0E94D705E02F0E94D70529
:10015800E12F0E94D70580E1B7D164960E94C706B7
:100168002A960895E0E8E0936100E0E0E0936100FA
:10017800E4B9E5B9E7B9E8B9EAB9EBB9A4E6B0E09A
:100188000E942703A4E10E94F9027894E1E00E940A
:10019800DC05E4E00E94DC05A4E6B0E00E943B0632
:1001A800A1E00E9485058F01A4E00E9485059F01BA
:1001B8000E94C802E0E0EA93A0E00E94E4051A93D6
:1001C8000A93A0E00E94EB05E0E0EA93A1E00E9418
:1001D800E4053A932A93A1E00E94EB05DDCFFFCF17
:1001E800BA93AA931A930A93AA81BB8112960E9482
:1001F800A706309759F1AA81BB8114960E94A706D9
:100208008F01309761F00230E0E01E0798F0F801A6
:1002180031978F01AA81BB811496ED93FC93AA8133
:10022800BB811296ED91FD913196FE93EE93319735
:10023800AC81A083AA81BB810E94A706FF232AF074
:10024800ED91FD913196FE93EE9306C0AA81BB8194
:10025800EFEFFFEFED93FC93198108812596089540
:10026800BA93AA9326970E94BE0610E0AC85BD8576
:10027800E0E0F0E0ED93FC93EA89FB893196EA8BA4
:10028800FB8B3197E4912E2FE03009F415C1E12F53
:10029800E03039F4253211F411E002C00E94F20571
:1002A8000AC1E130A9F4253219F40E94F20502C10D
:1002B80012E040E000E02D3211F401E0FCC02B32E6
:1002C80011F44BE2F8C0203211F440E2F4C002C04D
:1002D800E23039F450E013E0203311F40068EBC049
:1002E80003C0E33009F0E7C0203310F02A3308F0E8
:1002F80007C0AAE05A9F502DE22FE0535E0FDBC0E3
:10030800E22FE33649F40E94F905E889F989A481C6
:10031800AA930E94FF05CEC0E33741F40E94F90575
:100328000E9405060E94BE051E2F0AC0E03761F430
:100338000E94F9050E9405060E94CA051E2F086042
:1003480002600F7730E034C0E43611F0E93611F47A
:10035800046002C0E53731F4E8E6F0E0EE83FF839D
:1003680015E00CC0E83511F4086003C0E83709F05F
:10037800A1C0E2E7F0E0EE83FF8314E002FF14C0BF
:100388000E94F9050E940F06AB85AA233AF4EA8574
:10039800FB850E944906EA87FB874DE2403011F051
:1003A8001F5F01C00B7F04C00E94F9050E940F0661
:1003B80000FD11C0151778F407FF08C002FF04C03C
:1003C8000B7F242F115001C020E301C020E20E94BE
:1003D800F2055150EFCF312F01FF17C03030A1F097
:1003E80003FF06C0EE81FF812591EE83FF8305C0E0
:1003F800AE81BF812D91AE83BF830E94F20550303C
:1004080009F051503150EACF4BC020E3EE81FF8113
:100418000E94AB06E887F987EE81FF813296EE836A
:10042800FF83E885F985AA85BB85AE17BF0750F01D
:100438002F5FA885B985EA85FB85EA1BFB0BEA8750
:10044800FB87EFCF2A3328F003FF02C0295F01C0E2
:10045800295D04FD1AC0213320F4A885B9851197B8
:1004680009F409C0531710F000FF01C013C020E2BF
:1004780007FF0BC020E3006102FF07C00B7F4A9310
:100488000E94FF05503009F051500E94F20550308B
:1004980009F051503150A885B985129708F0B5CFA9
:1004A80000FF08C0503031F05150E0E2EA930E945A
:1004B800FF05F8CF10E0E0CEAC85BD850E94A70609
:1004C8000E94C50664960895FF92F82E26970E940A
:1004D800C0060E941706309719F4EFEFFFEF23C00C
:1004E800DE0116960E9445068D010E941706EE83CE
:1004F800FF83E0E0E887E987DE011A960E94450657
:100508000E94A706FA93EA931A930A93E4EFF0E09D
:10051800FA93EA93DE011A96A3DE9F01AE81BF81AA
:10052800E0E0EC93F9010E94C7062A96FF9008952F
:10053800AA93EBB1EF70AE2FE881E07FEA2BEBB91D
:100548008DE08A95F1F75A9A8DE08A95F1F75A98D5
:100558008DE08A95F1F775C0AA93A881E9DFE88153
:10056800E295E883A881E4DF85E88A95F1F769C018
:10057800AA93E881F0E0EB5CFC4FE081A981AE0F23
:10058800EBDF49803880BBC2A2E00E941E06ACE0C7
:10059800E3DFA1E00E941E06E0E03E2E4E2E089505
:1005A800AA93A881AA3011F0461448F0E0E0EA9333
:1005B8003394A32DDDDFA881AA3009F442C0439407
:1005C800589AA881C9DF58983CC0BA93AA931A933D
:1005D800A981BA81ED91A983BA831E2FE03019F061
:1005E800A12FDEDFF5CF1881ABC2AA93EAB1E06F85
:1005F800EAB9529A509A519A5A98589859986880D4
:10060800E881E058E0933703E881E054E093380349
:10061800A4E1B0E00E943B060E9424060E94240642
:100628000E942406A0E284DF88EC90E00197F1F7AD
:10063800A8E292DFA4E090DFA5E88EDFA6E08CDFD9
:10064800A3DF21960895BA93AA931A93F19AE7E043
:10065800E0930203E0E0E0934103E0934203E09378
:100668004303E0934403449A459AE093BC00E09125
:10067800B900EC7FE093B900E981FA81A0EABFE014
:100688000E9473061E2F183008F018501093B800F7
:10069800E091BC00E078E564E093BC00188150C2AA
:1006A800AA932497F19B63C0EA85EE0FE093390380
:1006B800E885F985E0933A03F0933B03E0E0E093A3
:1006C8000003EF81E0933C03ED81FE81E0933D035D
:1006D800F0933E03E0E0E0930103EC81E0933F03F5
:1006E800E6E0E09302037894EF81E03081F0E8855A
:1006F800F985309709F43BC0EC81E03021F0AD81F9
:10070800BE81109709F001C032C0F09A0DC0EC818B
:10071800E03039F1ED81FE81309749F1E0913903FC
:10072800E160E0933903F098F198E091BC00EF7034
:10073800E06AE093BC00E0E2F1EA67E070E00E9462
:10074800B406F1990EC00E94AF0631976040704020
:100758000E94B40629F4E5E0E0930203F19A07C089
:10076800F0CFA0910203E0E00E94610601C0E0E042
:100778002B9608950A921A92FA926A937A938A9318
:100788009A93AA93BA93EA93FA93EFB7EA930E94DB
:10079800BE06109101030091000330913C032091A3
:1007A8000203E12FA0913D03B0913E03F0E0EA0F70
:1007B800FB1FAF01E091B900E87FE83011F420E0B9
:1007C80002C0E03119F4E091390310C0E83111F0AA
:1007D800E83241F5031798F4E02F0F5FA0913A0330
:1007E800B0913B03F0E0AE0FBF1FEC91E093BB006C
:1007F800E091BC00EF70E068E093BC0012C0E091AB
:100808003F031E1768F4E0913903E160E093390370
:10081800F098E091BC00EF70E06AE093BC000DC175
:1008280038C00BC1E03531F4E091BB00DA01EC933C
:100838001F5F02C0E03489F4E0913F03E1501E17C6
:1008480028F0E091BC00EF70E06804C0E091BC00C3
:10085800EF70E06CE093BC00F0C0E83531F4E09153
:10086800BB00DA01EC931F5F02C0E03209F402C05A
:10087800E03309F402C0E83469F4203051F4F09B05
:1008880003C0031728F005C0E0913F031E1708F4C2
:1008980024E0CCC0E83331F422E0E091BC00EF70F2
:1008A800E068C8C0E83611F0E83711F422E005C066
:1008B800E03611F0E037A1F420E010E0F098E09184
:1008C8004003E03031F421E0E091BC00EF70E068D3
:1008D80004C0E091BC00EF70E06CE093BC00ADC0D8
:1008E800E03811F0E03939F5F09B02C021E09EC0F4
:1008F800E091BB00DA01EC931F5FE09140031E1703
:10090800C0F4E0914103F0914203309711F426E0DE
:100918008DC0A0E0E0914103F09142030995E030D9
:1009280039F0E091BC00EF70E06CE093BC0085C04A
:1009380001C0F09A02C0E83809F402C0E83939F475
:10094800E091BC00EF70E068E093BC0076C0E03A4C
:10095800B1F4E091BC00EF70E06CE093BC00F19A58
:10096800E0914103F0914203309739F0A1E0E09122
:100978004103F0914203099501C026E05EC0E03BC7
:1009880011F422E002C0E83AB1F4E0914303F09197
:100998004403309759F0A0E0E0914303F0914403F9
:1009A80009953E2FE03011F020E002C026E03EC05D
:1009B80000E0F09802C0E83BF9F4F09B02C021E0A7
:1009C80035C0E02F0F5FA0913A03B0913B03F0E0F0
:1009D800AE0FBF1FEC91E093BB00031728F4E09122
:1009E800BC00EF70E06C05C0F09AE091BC00EF70BD
:1009F800E068E093BC0021C0E03C11F0E83C99F4C9
:100A0800E091BC00EF70E06CE093BC00E091430320
:100A1800F0914403309731F0A1E0E0914303F09165
:100A28004403099509C0E03041F423E0E091BC009B
:100A3800EF70E06DE093BC00F19A1093010300930E
:100A480000032093020330933C030E94C5062696B8
:100A5800E991EFBFF991E991B991A991999189919A
:100A680079916991F990199009901895AA931A9318
:100A78001CEAE981E864EA93EDB7FEB7FA93EA93D2
:100A88001F93E1E0EA93EDB7FEB7FA93EA931F9359
:100A9800A1E006DE1F911F91E12F30C0AA93229793
:100AA800ECEAE883EA81E983EB810E942C06E2E024
:100AB8000E9433065DC0AA932397EC81E883EB81FB
:100AC800E983E0E0EA83ED810E942C06E3E00E94DE
:100AD8003306AD81CBDFE071E1F726960895AA933E
:100AE8001A931EEEE981E864EA93EDB7FEB7FA932C
:100AF800EA931F93E1E00E9433061F911881229622
:100B08000895AA932297EAEAE883EA810E942C06CC
:100B1800E1E0EA93FE013496FA93EA93A2E0C0DD9D
:100B2800E881F0E0EE0FFF1FBF01A981B0E0E7E028
:100B38000E944D06E62BF72BA5E0B0E00E946E065A
:100B480023960895AA93EB81EA93E981EE0FE85F73
:100B5800AE2FA4DFEB81EA93E2EAEA93AC81ABDF44
:100B6800EB81EA93E1EAEA93AB81A5DFAB81B7DFDA
:100B780024960895BA93AA93A991B991EE27FF27CD
:100B88006D91662311F03196FBCF0895BA93AA931D
:100B9800AA27BB27E991F9910590002011F0119639
:100BA800FBCFFD0108950E9456060E94B9060895DC
:100BB800EA93EEE1EA93E3E2EA93A0E00C94A60557
:100BC8000E94BC02E3E0F3E0FA93EA930895B0E0F0
:100BD8000E947C00A3E0B3E00C94E9022A93AD855F
:100BE800BE85EF85F88909950895E889F9893497CC
:100BF800E88BF98B0895AD85BE85EF85F889099551
:100C08000895A889B98914960E94A706EE83FF83E0
:100C1800AE81BF810895A889B98914960E94A70654
:100C2800EA87FB870895DE011C960E9445060E940C
:100C3800A70608950E94B002A3E0B0E00C943B061A
:100C4800A0E30E949C0288EC90E00197F1F70895D8
:100C5800E864EA93FE013196FA93EA930895EA93D9
:100C6800E0E0F0E0FA93EA93A0E00C9454031096C5
:100C780039F080ED97E00197F1F7A8951197C9F73A
:100C880008950024AF0DB01D0895F195E195F04049
:100C98000895EE230E2EFD0121F0F595E7950A94AF
:100CA800E1F70895FE2FFF0FFF0B6F2F7F2F089599
:100CB8006F2F660F660B762F0895EA17E1E009F0AB
:100CC800EE270895FA9FF02DEB9FF00DEA9FE02D97
:100CD800F10D08952AD0F6DF0EF4D7DF0895002429
:100CE800112490E1AA0FBB1F001C111C0E1A1F0A29
:100CF80018F40E0E1F1E01C0A1609A9599F7FD0108
:100D0800D001089512D0EBDF0EF4BFDF0895E89408
:100D1800B7FF04C0A095B09511966894F7FDB5DFAC
:100D2800DEDFFD010EF4B1DF0895E894F7FF02C09D
:100D3800ACDF6894B7FF06C0A095B095119600F88F
:100D4800039400FA0895ED91FC9111970895059088
:100D5800F491E02D0895E881F9816A817B810895F5
:100D6800E883F9836A837B8308957A936A93FA9375
:100D7800EA9308955A934A933A932A931A930A93B3
:100D880008955D814C813B812A81198108810895EC
:00000001FF
