:060000000C9434000C9486
:1000060000000C9400000C9400000C9400000C946A
:1000160000000C9400000C9400000C9400000C945A
:1000260000000C9400000C9400000C9400000C944A
:1000360000000C9400000C9400000C9400000C943A
:1000460000000C9400000C9400000C9400000C942A
:1000560000000C9400000C9400000C9400000C941A
:100066000000F894EE27EFBBF1E0F5BFE5BF8DE0A9
:10007600A2E0BB27ED938A95E9F780E098E0A0E03F
:10008600B1E0ED930197E9F7E0E0EEBBEFEFEDBFEE
:10009600E8E0EEBFC0E0D3E00C948400AA931A9384
:1000A6000A93EA81E03021F4E8E0E093810025C07C
:1000B600EA81F0E00E942E020E94AB01A0E0B4E2C9
:1000C60084EF9AE4B7D0E0E0F0E060E071E4B2D00B
:1000D600E0E0F0E06AE774E4ADD0E0E0F0E060E094
:1000E60070E40E94D9010E9472018F011093890069
:1000F600E0938800E9E0E093810019810881239666
:100106000895EF97E09720E030E050E0E0E8E093D4
:100116006100E0E0E0936100E2E0E4B9E0E0E5B927
:10012600E7B9E8B9EFEFEAB9E0E0EBB9E0E4E0936C
:100136008000E9E0E0938100E0E0E0938500E09351
:100146008400E0938700E0938600E4E0E093890072
:10015600E0E0E0938800E0938B00E0938A00E09370
:100166006F00E0EFEAB9A0E099DFE0E0E983A9815A
:10017600A43040F464D0E5B969D06DD0E981EF5F71
:10018600E983F5CFE0E0E983A981A43040F457D0B4
:10019600EBB969D060D0E981EF5FE983F5CFE0E0A4
:1001A600E983A981A43008F043C050D0AE0FBF1F29
:1001B6000C9059D0AE0FBF1FEC91E015A9F146D0B7
:1001C600AE0FBF1F2C9133274ED0AE0FBF1F5C91D1
:1001D600E0E0E883A881A430E8F4E52FE170EE0FB3
:1001E600AE2FE22FE170EA2BDE01A259BF4FEC934E
:1001F600F0E0E230A0E0FA0731F4E981EE0FEE0F0D
:10020600A881AE0F4BDF369527955695E881EF5FAF
:10021600E883E0CF1BD0EA0FFB1F0F0124D0AE0FFF
:10022600BF1FEC91D001EC93E981EF5FE983B9CF71
:10023600A9CFFFCF0E94D901DF01CB010895E98143
:10024600EC5FA1E00E942602E0950895E981F0E0C6
:10025600DE0116960895AE0FBF1FE9B1EC93AAE032
:10026600B0E00C943B01E981F0E0DE0112960895BE
:10027600109639F080ED97E00197F1F7A895119760
:10028600C9F70895552342F4503811F4E0FF04C02D
:100296003196691F791F6BF050E8572711F45F9369
:1002A60073C05F3F31F0660F000C57956795752F49
:1002B60008955F9300200AF073C06CC050E8192EB1
:1002C6001522880F991F9527550F879550E8072EF9
:1002D6000522660F771F7527550F67950895689451
:1002E60001C0E8945F93F2DF703818F07F3F08F49E
:1002F6004BC056E1571BAAF4519558300EF45930AD
:1003060030F0EFEFFFEF6FEF7FE777F91AC077274F
:100316005523B9F0EE0FFF1F661F771F5A95D1F7C9
:1003260010C07727583028F0EF2FF62F672F585038
:10033600F9CF552331F076956795F795E7955A9558
:10034600D1F700200AF477D05F910895689401C030
:10035600E894309760407040B1F0002426F077238F
:1003660012F4009468D0172E7EE1112032F07A95AF
:10037600EE0FFF1F661F111CF9CFEF2FF62F612D11
:100386005F938ADF5F910895EE27FF276627772719
:100396005F910895EFEFFFEF6FE77FEF5F910895AD
:1003A600EFEFFFEF6FE77FE75F9108955F9386DFDB
:1003B600703821F411200AF4EDCFF2CF903809F409
:1003C600E3CF01240894970B1BF4D4F30020F3CF5A
:1003D600792F1F932F933F934F9311241127222791
:1003E60033274427552790E2AE17BF0786074107F4
:1003F60030F0AE1BBF0B860B410B089401C08894EE
:10040600551F221F331F111CAA1FBB1F881F441F05
:100416009A9551F7F901612D4F913F912F911F91B7
:10042600662332F0550FEE1FFF1F661F7A9543F2C3
:1004360029DF5F910895F09560957095E195FF4FDE
:100446006F4F7F4F0895EE230E2EEA2F19F0EE0F11
:100456000A94E9F708956F2F660F660B762F0895B5
:00000001FF
