:060000000C9434000C9486
:1000060000000C9400000C9400000C9400000C946A
:1000160000000C9400000C9400000C9400000C945A
:1000260000000C9400000C9400000C9400000C944A
:1000360000000C9400000C9400000C9400000C943A
:1000460000000C9400000C9400000C9400000C942A
:1000560000000C9400000C9400000C9400000C941A
:100066000000F894EE27EFBBF1E0F5BFE5BF8DE0A9
:10007600A2E0BB27ED938A95E9F780E098E0A0E03F
:10008600B1E0ED930197E9F7E0E0EEBBEFEFEDBFEE
:10009600E8E0EEBFC0E0D3E00C947C00AA93E881D0
:1000A600E0937C00E0917A00E064E0937A00E091CE
:1000B6007A00E061E0937A00E0917800F0917900AF
:1000C60021960895BA93AA931A930A93EB81F07036
:1000D6001E2FEA810E2F2A981EBDEDB5E078E9F3B2
:1000E6000EBDEDB5E078E9F32A9A198108812496C8
:1000F6000895E0E8E0936100E0E0E0936100ECE25F
:10010600E4B9E0E0E5B9E7B9E8B9EAB9EBB9E093F3
:10011600C000E8E0E093C100E6E0E093C200E0E062
:10012600E093C500E3E3E093C400E0E0E0937E00E3
:10013600E0937C00E6E8E0937A00E0E0E0937B0061
:10014600E1E5ECBDE0E0EDBDA0E0A8DF8F01000F2A
:10015600111F000F111F1063D801B4DFF5CFFFCFB9
:00000001FF
