:040000000C943D001F
:100004000C9400000C9400000C9400000C9400006C
:100014000C9400000C9400000C9400000C9400005C
:100024000C9400000C9400000C9400000C9400004C
:100034000C9400000C9400000C9400000C9400003C
:100044000C9400000C9400000C9400000C9400002C
:100054000C9400000C9400000C9400000C9400001C
:100064000C9400001027E80364000A00010000104B
:10007400000110000100F894EE27EFBBF1E0F5BF9A
:10008400E5BF8DE0A2E0BB27ED938A95E9F780E018
:1000940098E0A0E0B1E0ED930197E9F7E0E0EEBB72
:1000A400EFEFEDBFE8E0EEBFC0E0D3E00C945A0000
:1000B4002697E4E0E883E0E0E983E3E0EA83E0E034
:1000C400EB83E2E0EC83E0E0ED83E0E8E0936100C1
:1000D400E0E0E0936100E2E0E4B9E0E0E5B9E7B92B
:1000E400E8B9EAB9EBB9E2E8E0938000E9E1E0932A
:1000F4008100E0E0E0938500E0938400E4E0E09395
:100104008700E5E7E0938600E0E0E0938900E0EF14
:10011400E0938800E0E0E0938B00E0938A00E093B2
:100124006F00E093C000E8E0E093C100E6E0E093F4
:10013400C200E0E0E093C500E3E3E093C40000E024
:1001440010E00E94BC00EF2FF0E0E09389000E94D1
:10015400BC00E09388000F5F1F4FE3E0F0E0E0177E
:10016400F10711F400E010E0A8EEB3E00E94C9002A
:10017400E8CFFFCFF801DE01EE0FFF1FAE0FBF1F68
:100184000E94E600A5E7B4E00E94D300089510960B
:1001940039F080ED97E00197F1F7A8951197C9F729
:1001A40008950024112490E1AA0FBB1F001C111C08
:1001B4000E1A1F0A18F40E0E1F1E01C0A1609A9594
:1001C40099F7FD01D0010895ED91FC9111970895DF
:00000001FF
