:060000000C9440000C947A
:1000060000000C9400000C9400000C9400000C946A
:1000160000000C9400000C9400000C9400000C945A
:1000260000000C9400000C9400000C9400000C944A
:1000360000000C9400000C9400000C9400000C943A
:1000460000000C9400000C9400000C9400000C942A
:1000560000000C9400000C9400000C9400000C941A
:1000660000001027E80364000A00010000100001E8
:100076001000010025750D0A0000F894EE27EFBB6D
:10008600F1E0F5BFE5BF8DE0A2E0BB27ED938A95D1
:10009600E9F780E098E0A0E0B1E0ED930197E9F799
:1000A600E0E0EEBBEFEFEDBFE8E0EEBFC0E0D3E08F
:1000B6000C947700AA93E881E0937C008BE18A9503
:1000C600F1F7E0917A00E064E0937A00E0917A003B
:1000D600E071E1F3E0917A00E061E0937A00E0916B
:1000E6007800F091790061C0E0E8E0936100E0E01B
:1000F600E0936100E2E0E4B9E0E0E5B9E7B9E8B928
:10010600EAB9EBB9E3E8E0938000EAE0E093810026
:10011600E0E0E0938500E0938400E0938700E093BD
:100126008600E0938900E0938800E0938B00E093DB
:100136008A00E0936F00E0937E00E0937C00E3E8A2
:10014600E0937A00E0E0E0937B00E093C000E8E013
:10015600E093C100E6E0E093C200E0E0E093C50072
:10016600E3E3E093C400A0E0A5DF8F01EAE7F0E057
:10017600FA93EA93F801662777270E94980284E0AB
:1001860057D1269610938900E02FE0938800A4E6C5
:10019600B0E00E947E02E7CFFFCFAA93E091C000B5
:1001A600E072E1F3E881E093C60021960895BA93E0
:1001B600AA93AA81F2DFA881B981ED91FD913196CA
:1001C600FE93EE9323960895BA93AA9326970E94D8
:1001D6009D0210E0AC85BD85E0E0F0E0ED93FC9378
:1001E600EA89FB893196EA8BFB8B3197E4912E2FB6
:1001F600E03009F415C1E12FE03039F4253211F46D
:1002060011E002C00E9459020AC1E130A9F4253268
:1002160019F40E94590202C112E040E000E02D32BA
:1002260011F401E0FCC02B3211F44BE2F8C020328D
:1002360011F440E2F4C002C0E23039F450E013E0B9
:10024600203311F40068EBC003C0E33009F0E7C0C7
:10025600203310F02A3308F007C0AAE05A9F502D29
:10026600E22FE0535E0FDBC0E22FE33649F40E9433
:100276006002E889F989A481AA930E946602CEC029
:10028600E33741F40E9460020E946C020E94400221
:100296001E2F0AC0E03761F40E9460020E946C02C1
:1002A6000E944C021E2F086002600F7730E034C0B7
:1002B600E43611F0E93611F4046002C0E53731F492
:1002C600E8E6F0E0EE83FF8315E00CC0E83511F4B4
:1002D600086003C0E83709F0A1C0E2E7F0E0EE836A
:1002E600FF8314E002FF14C00E9460020E9476029F
:1002F600AB85AA233AF4EA85FB850E948C02EA873D
:10030600FB874DE2403011F01F5F01C00B7F04C038
:100316000E9460020E94760200FD11C0151778F453
:1003260007FF08C002FF04C00B7F242F115001C035
:1003360020E301C020E20E9459025150EFCF312F35
:1003460001FF17C03030A1F003FF06C0EE81FF8128
:100356002591EE83FF8305C0AE81BF812D91AE83CB
:10036600BF830E945902503009F051503150EACFF4
:100376004BC020E3EE81FF810E949402E887F98753
:10038600EE81FF813296EE83FF83E885F985AA85A3
:10039600BB85AE17BF0750F02F5FA885B985EA85E4
:1003A600FB85EA1BFB0BEA87FB87EFCF2A3328F096
:1003B60003FF02C0295F01C0295D04FD1AC0213375
:1003C60020F4A885B985119709F409C0531710F0D0
:1003D60000FF01C013C020E207FF0BC020E300614D
:1003E60002FF07C00B7F4A930E946602503009F055
:1003F60051500E945902503009F051503150A88591
:10040600B985129708F0B5CF00FF08C0503031F01B
:100416005150E0E2EA930E946602F8CF10E0E0CE87
:10042600AC85BD850E9490020E94A4026496089540
:10043600FF92F82E26971A930A93DE0114960E94CD
:1004460088028D01E0E0EC83ED83EE83EF83DE012D
:1004560018960E9488020E949002FA93EA931A93D1
:100466000A93EAEDF0E0FA93EA93DE011896ACDE21
:10047600198108812896FF900895BA93AA93A991A5
:10048600B991EE27FF276D91662311F03196FBCFC8
:100496000895BA93AA93AA27BB27E991F9910590E3
:1004A600002011F01196FBCFFD0108952A93AD852A
:1004B600BE85EF85F88909950895E889F989349705
:1004C600E88BF98B0895AD85BE85EF85F88909958A
:1004D6000895A889B98914960E949002EE83FF8335
:1004E600AE81BF810895A889B98914960E949002A9
:1004F600EA87FB870895109639F080ED97E001971B
:10050600F1F7A8951197C9F708950024AF0DB01D0E
:100516000895F195E195F0400895ED91FC911197BC
:1005260008950590F491E02D08957A936A93FA93CD
:10053600EA9308955A934A933A932A931A930A93FD
:1005460008955D814C813B812A8119810881089536
:00000001FF
