:080000000C943F000C94000079
:100008000C9400000C9400000C9400000C94000068
:100018000C9400000C9400000C9400000C94000058
:100028000C9400000C9400000C9400000C94000048
:100038000C9400000C9400000C9400000C94000038
:100048000C9400000C9400000C9400000C94000028
:100058000C9400000C9400000C9400000C94000018
:10006800550000001027E80364000A000100001092
:10007800000110000100F894EE27EFBBF1E0F5BF96
:10008800E5BF8DE0A2E0BB27ED938A95E9F780E014
:1000980098E0A0E0B1E0ED930197E9F7E0E0EEBB6E
:1000A800EFEFEDBFE8E0EEBFC0E0D3E00C945C00FA
:1000B800E0E8E0936100E0E0E0936100E4B9E5B9CD
:1000C800E7B9E8B9EAB9EBB9E093C000E8E0E09332
:1000D800C100E6E0E093C200E0E0E093C500E3E39E
:1000E800E093C400E8E6F0E0FA93EA9380E04FD1A9
:1000F8002296F8CFFFCFFFCFAA93E091C000E0721D
:10010800E1F3E881E093C60021960895BA93AA9393
:10011800AA81F2DFA881B981ED91FD913196FE9314
:10012800EE9323960895BA93AA9326970E943E02C7
:1001380010E0AC85BD85E0E0F0E0ED93FC93EA8942
:10014800FB893196EA8BFB8B3197E4912E2FE030B7
:1001580009F415C1E12FE03039F4253211F411E02A
:1001680002C00E9409020AC1E130A9F4253219F43B
:100178000E94090202C112E040E000E02D3211F4B1
:1001880001E0FCC02B3211F44BE2F8C0203211F42C
:1001980040E2F4C002C0E23039F450E013E020330A
:1001A80011F40068EBC003C0E33009F0E7C0203366
:1001B80010F02A3308F007C0AAE05A9F502DE22F0A
:1001C800E0535E0FDBC0E22FE33649F40E941002D1
:1001D800E889F989A481AA930E941602CEC0E33760
:1001E80041F40E9410020E941C020E94F0011E2F7E
:1001F8000AC0E03761F40E9410020E941C020E94AB
:10020800FC011E2F086002600F7730E034C0E4362E
:1002180011F0E93611F4046002C0E53731F4ECE678
:10022800F0E0EE83FF8315E00CC0E83511F40860B8
:1002380003C0E83709F0A1C0E6E7F0E0EE83FF83EA
:1002480014E002FF14C00E9410020E942602AB852F
:10025800AA233AF4EA85FB850E943202EA87FB87E3
:100268004DE2403011F01F5F01C00B7F04C00E94B7
:1002780010020E94260200FD11C0151778F407FF2E
:1002880008C002FF04C00B7F242F115001C020E3D7
:1002980001C020E20E9409025150EFCF312F01FF27
:1002A80017C03030A1F003FF06C0EE81FF81259111
:1002B800EE83FF8305C0AE81BF812D91AE83BF83DE
:1002C8000E940902503009F051503150EACF4BC01A
:1002D80020E3EE81FF810E943A02E887F987EE81E8
:1002E800FF813296EE83FF83E885F985AA85BB8571
:1002F800AE17BF0750F02F5FA885B985EA85FB8543
:10030800EA1BFB0BEA87FB87EFCF2A3328F003FFB2
:1003180002C0295F01C0295D04FD1AC0213320F401
:10032800A885B985119709F409C0531710F000FF83
:1003380001C013C020E207FF0BC020E3006102FFE9
:1003480007C00B7F4A930E941602503009F05150A3
:100358000E940902503009F051503150A885B985E2
:10036800129708F0B5CF00FF08C0503031F0515057
:10037800E0E2EA930E941602F8CF10E0E0CEAC85E6
:10038800BD850E9436020E94450264960895FF9238
:10039800F82E26971A930A93DE0114960E942E02CD
:1003A8008D01E0E0EC83ED83EE83EF83DE011896A8
:1003B8000E942E020E943602FA93EA931A930A9335
:1003C800EAE8F0E0FA93EA93DE011896ACDE1981C8
:1003D80008812896FF900895BA93AA93A991B99194
:1003E800EE27FF276D91662311F03196FBCF089514
:1003F800BA93AA93AA27BB27E991F99105900020FF
:1004080011F01196FBCFFD0108952A93AD85BE85A5
:10041800EF85F88909950895E889F9893497E88B73
:10042800F98B0895AD85BE85EF85F88909950895FE
:10043800A889B98914960E943602EE83FF83AE819B
:10044800BF810895A889B98914960E943602EA875F
:10045800FB8708950024AF0DB01D0895F195E1952F
:10046800F0400895ED91FC91119708950590F4914D
:10047800E02D08955A934A933A932A931A930A932C
:1004880008955D814C813B812A81198108810895F5
:00000001FF
